{
  "contractName": "VitalikSteward",
  "abi": [
    {
      "constant": true,
      "inputs": [
        {
          "name": "",
          "type": "uint8"
        },
        {
          "name": "",
          "type": "address"
        }
      ],
      "name": "patrons",
      "outputs": [
        {
          "name": "",
          "type": "bool"
        }
      ],
      "payable": false,
      "stateMutability": "view",
      "type": "function"
    },
    {
      "constant": true,
      "inputs": [
        {
          "name": "",
          "type": "uint8"
        },
        {
          "name": "",
          "type": "address"
        }
      ],
      "name": "timeHeld",
      "outputs": [
        {
          "name": "",
          "type": "uint256"
        }
      ],
      "payable": false,
      "stateMutability": "view",
      "type": "function"
    },
    {
      "constant": true,
      "inputs": [],
      "name": "assetToken",
      "outputs": [
        {
          "name": "",
          "type": "address"
        }
      ],
      "payable": false,
      "stateMutability": "view",
      "type": "function"
    },
    {
      "constant": true,
      "inputs": [
        {
          "name": "",
          "type": "uint256"
        }
      ],
      "name": "currentCollected",
      "outputs": [
        {
          "name": "",
          "type": "uint256"
        }
      ],
      "payable": false,
      "stateMutability": "view",
      "type": "function"
    },
    {
      "constant": true,
      "inputs": [],
      "name": "organization",
      "outputs": [
        {
          "name": "",
          "type": "address"
        }
      ],
      "payable": false,
      "stateMutability": "view",
      "type": "function"
    },
    {
      "constant": true,
      "inputs": [
        {
          "name": "",
          "type": "uint256"
        }
      ],
      "name": "price",
      "outputs": [
        {
          "name": "",
          "type": "uint256"
        }
      ],
      "payable": false,
      "stateMutability": "view",
      "type": "function"
    },
    {
      "constant": true,
      "inputs": [
        {
          "name": "",
          "type": "uint256"
        }
      ],
      "name": "state",
      "outputs": [
        {
          "name": "",
          "type": "uint8"
        }
      ],
      "payable": false,
      "stateMutability": "view",
      "type": "function"
    },
    {
      "constant": true,
      "inputs": [
        {
          "name": "",
          "type": "uint256"
        }
      ],
      "name": "hashes",
      "outputs": [
        {
          "name": "",
          "type": "string"
        }
      ],
      "payable": false,
      "stateMutability": "view",
      "type": "function"
    },
    {
      "constant": true,
      "inputs": [
        {
          "name": "",
          "type": "uint256"
        }
      ],
      "name": "timeAcquired",
      "outputs": [
        {
          "name": "",
          "type": "uint256"
        }
      ],
      "payable": false,
      "stateMutability": "view",
      "type": "function"
    },
    {
      "constant": true,
      "inputs": [
        {
          "name": "",
          "type": "uint256"
        }
      ],
      "name": "urls",
      "outputs": [
        {
          "name": "",
          "type": "string"
        }
      ],
      "payable": false,
      "stateMutability": "view",
      "type": "function"
    },
    {
      "constant": true,
      "inputs": [
        {
          "name": "",
          "type": "uint256"
        }
      ],
      "name": "timeLastCollected",
      "outputs": [
        {
          "name": "",
          "type": "uint256"
        }
      ],
      "payable": false,
      "stateMutability": "view",
      "type": "function"
    },
    {
      "constant": true,
      "inputs": [],
      "name": "organizationFund",
      "outputs": [
        {
          "name": "",
          "type": "uint256"
        }
      ],
      "payable": false,
      "stateMutability": "view",
      "type": "function"
    },
    {
      "constant": true,
      "inputs": [
        {
          "name": "",
          "type": "uint256"
        }
      ],
      "name": "deposit",
      "outputs": [
        {
          "name": "",
          "type": "uint256"
        }
      ],
      "payable": false,
      "stateMutability": "view",
      "type": "function"
    },
    {
      "constant": true,
      "inputs": [
        {
          "name": "",
          "type": "uint256"
        }
      ],
      "name": "totalCollected",
      "outputs": [
        {
          "name": "",
          "type": "uint256"
        }
      ],
      "payable": false,
      "stateMutability": "view",
      "type": "function"
    },
    {
      "inputs": [
        {
          "name": "_organization",
          "type": "address"
        },
        {
          "name": "_assetToken",
          "type": "address"
        }
      ],
      "payable": false,
      "stateMutability": "nonpayable",
      "type": "constructor"
    },
    {
      "anonymous": false,
      "inputs": [
        {
          "indexed": true,
          "name": "owner",
          "type": "address"
        },
        {
          "indexed": true,
          "name": "price",
          "type": "uint256"
        }
      ],
      "name": "LogBuy",
      "type": "event"
    },
    {
      "anonymous": false,
      "inputs": [
        {
          "indexed": true,
          "name": "newPrice",
          "type": "uint256"
        }
      ],
      "name": "LogPriceChange",
      "type": "event"
    },
    {
      "anonymous": false,
      "inputs": [
        {
          "indexed": true,
          "name": "newImage",
          "type": "string"
        }
      ],
      "name": "LogImageChange",
      "type": "event"
    },
    {
      "anonymous": false,
      "inputs": [
        {
          "indexed": true,
          "name": "newUrl",
          "type": "string"
        }
      ],
      "name": "LogUrlChange",
      "type": "event"
    },
    {
      "anonymous": false,
      "inputs": [
        {
          "indexed": true,
          "name": "prevOwner",
          "type": "address"
        }
      ],
      "name": "LogForeclosure",
      "type": "event"
    },
    {
      "anonymous": false,
      "inputs": [
        {
          "indexed": true,
          "name": "collected",
          "type": "uint256"
        }
      ],
      "name": "LogCollection",
      "type": "event"
    },
    {
      "constant": false,
      "inputs": [
        {
          "name": "_newReceivingOrganization",
          "type": "address"
        }
      ],
      "name": "changeReceivingOrganization",
      "outputs": [],
      "payable": false,
      "stateMutability": "nonpayable",
      "type": "function"
    },
    {
      "constant": true,
      "inputs": [
        {
          "name": "tokenIndex",
          "type": "uint8"
        }
      ],
      "name": "patronageOwed",
      "outputs": [
        {
          "name": "patronageDue",
          "type": "uint256"
        }
      ],
      "payable": false,
      "stateMutability": "view",
      "type": "function"
    },
    {
      "constant": true,
      "inputs": [
        {
          "name": "tokenIndex",
          "type": "uint8"
        }
      ],
      "name": "patronageOwedWithTimestamp",
      "outputs": [
        {
          "name": "patronageDue",
          "type": "uint256"
        },
        {
          "name": "timestamp",
          "type": "uint256"
        }
      ],
      "payable": false,
      "stateMutability": "view",
      "type": "function"
    },
    {
      "constant": true,
      "inputs": [
        {
          "name": "tokenIndex",
          "type": "uint8"
        }
      ],
      "name": "foreclosed",
      "outputs": [
        {
          "name": "",
          "type": "bool"
        }
      ],
      "payable": false,
      "stateMutability": "view",
      "type": "function"
    },
    {
      "constant": true,
      "inputs": [
        {
          "name": "tokenIndex",
          "type": "uint8"
        }
      ],
      "name": "depositAbleToWithdraw",
      "outputs": [
        {
          "name": "",
          "type": "uint256"
        }
      ],
      "payable": false,
      "stateMutability": "view",
      "type": "function"
    },
    {
      "constant": true,
      "inputs": [
        {
          "name": "tokenIndex",
          "type": "uint8"
        }
      ],
      "name": "foreclosureTime",
      "outputs": [
        {
          "name": "",
          "type": "uint256"
        }
      ],
      "payable": false,
      "stateMutability": "view",
      "type": "function"
    },
    {
      "constant": false,
      "inputs": [
        {
          "name": "tokenIndex",
          "type": "uint8"
        }
      ],
      "name": "_collectPatronage",
      "outputs": [],
      "payable": false,
      "stateMutability": "nonpayable",
      "type": "function"
    },
    {
      "constant": false,
      "inputs": [
        {
          "name": "tokenIndex",
          "type": "uint8"
        }
      ],
      "name": "depositWei",
      "outputs": [],
      "payable": true,
      "stateMutability": "payable",
      "type": "function"
    },
    {
      "constant": false,
      "inputs": [
        {
          "name": "tokenIndex",
          "type": "uint8"
        },
        {
          "name": "_newPrice",
          "type": "uint256"
        }
      ],
      "name": "buy",
      "outputs": [],
      "payable": true,
      "stateMutability": "payable",
      "type": "function"
    },
    {
      "constant": false,
      "inputs": [
        {
          "name": "tokenIndex",
          "type": "uint8"
        },
        {
          "name": "_newPrice",
          "type": "uint256"
        }
      ],
      "name": "changePrice",
      "outputs": [],
      "payable": false,
      "stateMutability": "nonpayable",
      "type": "function"
    },
    {
      "constant": false,
      "inputs": [
        {
          "name": "tokenIndex",
          "type": "uint8"
        },
        {
          "name": "_newHash",
          "type": "string"
        }
      ],
      "name": "changeImage",
      "outputs": [],
      "payable": false,
      "stateMutability": "nonpayable",
      "type": "function"
    },
    {
      "constant": false,
      "inputs": [
        {
          "name": "tokenIndex",
          "type": "uint8"
        },
        {
          "name": "_newUrl",
          "type": "string"
        }
      ],
      "name": "changeUrl",
      "outputs": [],
      "payable": false,
      "stateMutability": "nonpayable",
      "type": "function"
    },
    {
      "constant": false,
      "inputs": [
        {
          "name": "tokenIndex",
          "type": "uint8"
        },
        {
          "name": "_wei",
          "type": "uint256"
        }
      ],
      "name": "withdrawDeposit",
      "outputs": [
        {
          "name": "",
          "type": "uint256"
        }
      ],
      "payable": false,
      "stateMutability": "nonpayable",
      "type": "function"
    },
    {
      "constant": false,
      "inputs": [],
      "name": "withdrawOrganizationFunds",
      "outputs": [],
      "payable": false,
      "stateMutability": "nonpayable",
      "type": "function"
    },
    {
      "constant": false,
      "inputs": [
        {
          "name": "tokenIndex",
          "type": "uint8"
        }
      ],
      "name": "exit",
      "outputs": [],
      "payable": false,
      "stateMutability": "nonpayable",
      "type": "function"
    }
  ],
  "bytecode": "0x6080604052650ae9f7bcc000604d5564e8d4a51000604e553480156200002457600080fd5b50604051604080620030e1833981018060405260408110156200004657600080fd5b81019080805190602001909291908051906020019092919050505080600960006101000a81548173ffffffffffffffffffffffffffffffffffffffff021916908373ffffffffffffffffffffffffffffffffffffffff160217905550600960009054906101000a900473ffffffffffffffffffffffffffffffffffffffff1673ffffffffffffffffffffffffffffffffffffffff166321078ec860096040518263ffffffff1660e01b8152600401808260ff1660ff16815260200180602001828103825260068152602001807f4649582d4d45000000000000000000000000000000000000000000000000000081525060200192505050600060405180830381600087803b1580156200015857600080fd5b505af11580156200016d573d6000803e3d6000fd5b5050505081604060006101000a81548173ffffffffffffffffffffffffffffffffffffffff021916908373ffffffffffffffffffffffffffffffffffffffff16021790555060008090505b600960ff168160ff16101562000210576000604f8260ff1660098110620001db57fe5b602091828204019190066101000a81548160ff02191690836001811115620001ff57fe5b0217905550806001019050620001b8565b5060008090505b600960ff168160ff16101562000275576040518060600160405280602e8152602001620030b3602e9139600a8260ff16600981106200025257fe5b01908051906020019062000268929190620002ff565b5080600101905062000217565b5060008090505b600960ff168160ff161015620002f6576040518060400160405280601781526020017f68747470733a2f2f77696c6463617264732e776f726c6400000000000000000081525060138260ff1660098110620002d357fe5b019080519060200190620002e9929190620002ff565b508060010190506200027c565b505050620003ae565b828054600181600116156101000203166002900490600052602060002090601f016020900481019282601f106200034257805160ff191683800117855562000373565b8280016001018555821562000373579182015b828111156200037257825182559160200191906001019062000355565b5b50905062000382919062000386565b5090565b620003ab91905b80821115620003a75760008160009055506001016200038d565b5090565b90565b612cf580620003be6000396000f3fe6080604052600436106101c25760003560e01c806371328f87116100f75780639f063af211610095578063bac6b5d311610064578063bac6b5d314610ab6578063bfc91cf514610af4578063c03a252b14610bc9578063c331005214610c1b576101c2565b80639f063af214610929578063a1fb2b66146109fe578063b2d4dded14610a3c578063b6b55f2514610a67576101c2565b80638cb68899116100d15780638cb68899146107e45780639153b2681461083357806391778b9c1461088f5780639de1535b146108d7576101c2565b806371328f87146106c7578063796676be146107195780637f1dd4cf146107cd576101c2565b80633e4f49e611610164578063501895ae1161013e578063501895ae146105585780635b2ace641461060c5780635dade65d1461065b57806362f791c01461068c576101c2565b80633e4f49e61461045457806343b9c06b146104b15780634a8bd21514610507576101c2565b80631b252781116101a05780631b252781146103065780631b6380771461035557806323bd4d7a146103ae57806326a49e3714610405576101c2565b8063025306c2146101c757806302702d331461023d5780631083f761146102af575b600080fd5b3480156101d357600080fd5b50610223600480360360408110156101ea57600080fd5b81019080803560ff169060200190929190803573ffffffffffffffffffffffffffffffffffffffff169060200190929190505050610c6a565b604051808215151515815260200191505060405180910390f35b34801561024957600080fd5b506102996004803603604081101561026057600080fd5b81019080803560ff169060200190929190803573ffffffffffffffffffffffffffffffffffffffff169060200190929190505050610c99565b6040518082815260200191505060405180910390f35b3480156102bb57600080fd5b506102c4610cbe565b604051808273ffffffffffffffffffffffffffffffffffffffff1673ffffffffffffffffffffffffffffffffffffffff16815260200191505060405180910390f35b34801561031257600080fd5b5061033f6004803603602081101561032957600080fd5b8101908080359060200190929190505050610ce4565b6040518082815260200191505060405180910390f35b34801561036157600080fd5b506103916004803603602081101561037857600080fd5b81019080803560ff169060200190929190505050610cfc565b604051808381526020018281526020019250505060405180910390f35b3480156103ba57600080fd5b506103c3610d12565b604051808273ffffffffffffffffffffffffffffffffffffffff1673ffffffffffffffffffffffffffffffffffffffff16815260200191505060405180910390f35b34801561041157600080fd5b5061043e6004803603602081101561042857600080fd5b8101908080359060200190929190505050610d38565b6040518082815260200191505060405180910390f35b34801561046057600080fd5b5061048d6004803603602081101561047757600080fd5b8101908080359060200190929190505050610d50565b6040518082600181111561049d57fe5b60ff16815260200191505060405180910390f35b3480156104bd57600080fd5b506104ed600480360360208110156104d457600080fd5b81019080803560ff169060200190929190505050610d77565b604051808215151515815260200191505060405180910390f35b34801561051357600080fd5b506105566004803603602081101561052a57600080fd5b81019080803573ffffffffffffffffffffffffffffffffffffffff169060200190929190505050610db2565b005b34801561056457600080fd5b506105916004803603602081101561057b57600080fd5b8101908080359060200190929190505050610eb9565b6040518080602001828103825283818151815260200191508051906020019080838360005b838110156105d15780820151818401526020810190506105b6565b50505050905090810190601f1680156105fe5780820380516001836020036101000a031916815260200191505b509250505060405180910390f35b34801561061857600080fd5b506106456004803603602081101561062f57600080fd5b8101908080359060200190929190505050610f69565b6040518082815260200191505060405180910390f35b61068a6004803603602081101561067157600080fd5b81019080803560ff169060200190929190505050610f81565b005b6106c5600480360360408110156106a257600080fd5b81019080803560ff1690602001909291908035906020019092919050505061107a565b005b3480156106d357600080fd5b50610703600480360360208110156106ea57600080fd5b81019080803560ff169060200190929190505050611446565b6040518082815260200191505060405180910390f35b34801561072557600080fd5b506107526004803603602081101561073c57600080fd5b81019080803590602001909291905050506114c0565b6040518080602001828103825283818151815260200191508051906020019080838360005b83811015610792578082015181840152602081019050610777565b50505050905090810190601f1680156107bf5780820380516001836020036101000a031916815260200191505b509250505060405180910390f35b3480156107d957600080fd5b506107e2611570565b005b3480156107f057600080fd5b5061081d6004803603602081101561080757600080fd5b81019080803590602001909291905050506116a8565b6040518082815260200191505060405180910390f35b34801561083f57600080fd5b506108796004803603604081101561085657600080fd5b81019080803560ff169060200190929190803590602001909291905050506116c0565b6040518082815260200191505060405180910390f35b34801561089b57600080fd5b506108d5600480360360408110156108b257600080fd5b81019080803560ff16906020019092919080359060200190929190505050611830565b005b3480156108e357600080fd5b50610913600480360360208110156108fa57600080fd5b81019080803560ff169060200190929190505050611b0f565b6040518082815260200191505060405180910390f35b34801561093557600080fd5b506109fc6004803603604081101561094c57600080fd5b81019080803560ff1690602001909291908035906020019064010000000081111561097657600080fd5b82018360208201111561098857600080fd5b803590602001918460018302840111640100000000831117156109aa57600080fd5b91908080601f016020809104026020016040519081016040528093929190818152602001838380828437600081840152601f19601f820116905080830192505050505050509192919290505050611b6c565b005b348015610a0a57600080fd5b50610a3a60048036036020811015610a2157600080fd5b81019080803560ff169060200190929190505050611eb7565b005b348015610a4857600080fd5b50610a516120e1565b6040518082815260200191505060405180910390f35b348015610a7357600080fd5b50610aa060048036036020811015610a8a57600080fd5b81019080803590602001909291905050506120e7565b6040518082815260200191505060405180910390f35b348015610ac257600080fd5b50610af260048036036020811015610ad957600080fd5b81019080803560ff1690602001909291905050506120ff565b005b348015610b0057600080fd5b50610bc760048036036040811015610b1757600080fd5b81019080803560ff16906020019092919080359060200190640100000000811115610b4157600080fd5b820183602082011115610b5357600080fd5b80359060200191846001830284011164010000000083111715610b7557600080fd5b91908080601f016020809104026020016040519081016040528093929190818152602001838380828437600081840152601f19601f82011690508083019250505050505050919291929050505061227b565b005b348015610bd557600080fd5b50610c0560048036036020811015610bec57600080fd5b81019080803560ff1690602001909291905050506125c6565b6040518082815260200191505060405180910390f35b348015610c2757600080fd5b50610c5460048036036020811015610c3e57600080fd5b8101908080359060200190929190505050612654565b6040518082815260200191505060405180910390f35b60426020528160005260406000206020528060005260406000206000915091509054906101000a900460ff1681565b6043602052816000526040600020602052806000526040600020600091509150505481565b600960009054906101000a900473ffffffffffffffffffffffffffffffffffffffff1681565b60258160098110610cf157fe5b016000915090505481565b600080610d08836125c6565b4291509150915091565b604060009054906101000a900473ffffffffffffffffffffffffffffffffffffffff1681565b60008160098110610d4557fe5b016000915090505481565b604f8160098110610d5d57fe5b60209182820401919006915054906101000a900460ff1681565b600080610d83836125c6565b905060378360ff1660098110610d9557fe5b01548110610da7576001915050610dad565b60009150505b919050565b604060009054906101000a900473ffffffffffffffffffffffffffffffffffffffff1673ffffffffffffffffffffffffffffffffffffffff163373ffffffffffffffffffffffffffffffffffffffff1614610e75576040517f08c379a00000000000000000000000000000000000000000000000000000000081526004018080602001828103825260108152602001807f4e6f74206f7267616e697a6174696f6e0000000000000000000000000000000081525060200191505060405180910390fd5b80604060006101000a81548173ffffffffffffffffffffffffffffffffffffffff021916908373ffffffffffffffffffffffffffffffffffffffff16021790555050565b600a8160098110610ec657fe5b016000915090508054600181600116156101000203166002900480601f016020809104026020016040519081016040528092919081815260200182805460018160011615610100020316600290048015610f615780601f10610f3657610100808354040283529160200191610f61565b820191906000526020600020905b815481529060010190602001808311610f4457829003601f168201915b505050505081565b60448160098110610f7657fe5b016000915090505481565b80610f8b81611eb7565b60006001811115610f9857fe5b604f8360ff1660098110610fa857fe5b602091828204019190069054906101000a900460ff166001811115610fc957fe5b141561103d576040517f08c379a000000000000000000000000000000000000000000000000000000000815260040180806020018281038252600a8152602001807f466f7265636c6f7365640000000000000000000000000000000000000000000081525060200191505060405180910390fd5b6110613460378460ff166009811061105157fe5b015461266c90919063ffffffff16565b60378360ff166009811061107157fe5b01819055505050565b8161108481611eb7565b600082116110fa576040517f08c379a000000000000000000000000000000000000000000000000000000000815260040180806020018281038252600d8152602001807f5072696365206973207a65726f0000000000000000000000000000000000000081525060200191505060405180910390fd5b60008360ff166009811061110a57fe5b01543411611180576040517f08c379a000000000000000000000000000000000000000000000000000000000815260040180806020018281038252600a8152602001807f4e6f7420656e6f7567680000000000000000000000000000000000000000000081525060200191505060405180910390fd5b6000600960009054906101000a900473ffffffffffffffffffffffffffffffffffffffff1673ffffffffffffffffffffffffffffffffffffffff16636352211e856040518263ffffffff1660e01b8152600401808260ff16815260200191505060206040518083038186803b1580156111f857600080fd5b505afa15801561120c573d6000803e3d6000fd5b505050506040513d602081101561122257600080fd5b8101908080519060200190929190505050905060018081111561124157fe5b604f8560ff166009811061125157fe5b602091828204019190069054906101000a900460ff16600181111561127257fe5b1415611321576000808560ff166009811061128957fe5b01549050600060378660ff166009811061129f57fe5b015411156112ce576112cb60378660ff16600981106112ba57fe5b01548261266c90919063ffffffff16565b90505b60008290508073ffffffffffffffffffffffffffffffffffffffff166108fc839081150290604051600060405180830381858888f19350505050158015611319573d6000803e3d6000fd5b5050506113b7565b6000600181111561132e57fe5b604f8560ff166009811061133e57fe5b602091828204019190069054906101000a900460ff16600181111561135f57fe5b14156113b6576001604f8560ff166009811061137757fe5b602091828204019190066101000a81548160ff0219169083600181111561139a57fe5b021790555042602e8560ff16600981106113b057fe5b01819055505b5b6113db60008560ff16600981106113ca57fe5b01543461268b90919063ffffffff16565b60378560ff16600981106113eb57fe5b01819055506113fc848233866126ab565b823373ffffffffffffffffffffffffffffffffffffffff167f4f79409f494e81c38036d80aa8a6507c2cb08d90bfb2fead5519447646b3497e60405160405180910390a350505050565b6000806114996301e1338061148b604e5461147d604d5460008960ff166009811061146d57fe5b015461293b90919063ffffffff16565b61297590919063ffffffff16565b61297590919063ffffffff16565b90506114b6816114a885611b0f565b61297590919063ffffffff16565b4201915050919050565b601381600981106114cd57fe5b016000915090508054600181600116156101000203166002900480601f0160208091040260200160405190810160405280929190818152602001828054600181600116156101000203166002900480156115685780601f1061153d57610100808354040283529160200191611568565b820191906000526020600020905b81548152906001019060200180831161154b57829003601f168201915b505050505081565b604060009054906101000a900473ffffffffffffffffffffffffffffffffffffffff1673ffffffffffffffffffffffffffffffffffffffff163373ffffffffffffffffffffffffffffffffffffffff1614611633576040517f08c379a00000000000000000000000000000000000000000000000000000000081526004018080602001828103825260108152602001807f4e6f74206f7267616e697a6174696f6e0000000000000000000000000000000081525060200191505060405180910390fd5b604060009054906101000a900473ffffffffffffffffffffffffffffffffffffffff1673ffffffffffffffffffffffffffffffffffffffff166108fc6041549081150290604051600060405180830381858888f1935050505015801561169d573d6000803e3d6000fd5b506000604181905550565b602e81600981106116b557fe5b016000915090505481565b600082600960009054906101000a900473ffffffffffffffffffffffffffffffffffffffff1673ffffffffffffffffffffffffffffffffffffffff16636352211e826040518263ffffffff1660e01b8152600401808260ff16815260200191505060206040518083038186803b15801561173957600080fd5b505afa15801561174d573d6000803e3d6000fd5b505050506040513d602081101561176357600080fd5b810190808051906020019092919050505073ffffffffffffffffffffffffffffffffffffffff163373ffffffffffffffffffffffffffffffffffffffff1614611814576040517f08c379a000000000000000000000000000000000000000000000000000000000815260040180806020018281038252600a8152602001807f4e6f7420706174726f6e0000000000000000000000000000000000000000000081525060200191505060405180910390fd5b8361181e81611eb7565b611828858561299b565b505092915050565b81600960009054906101000a900473ffffffffffffffffffffffffffffffffffffffff1673ffffffffffffffffffffffffffffffffffffffff16636352211e826040518263ffffffff1660e01b8152600401808260ff16815260200191505060206040518083038186803b1580156118a757600080fd5b505afa1580156118bb573d6000803e3d6000fd5b505050506040513d60208110156118d157600080fd5b810190808051906020019092919050505073ffffffffffffffffffffffffffffffffffffffff163373ffffffffffffffffffffffffffffffffffffffff1614611982576040517f08c379a000000000000000000000000000000000000000000000000000000000815260040180806020018281038252600a8152602001807f4e6f7420706174726f6e0000000000000000000000000000000000000000000081525060200191505060405180910390fd5b8261198c81611eb7565b6000600181111561199957fe5b604f8560ff16600981106119a957fe5b602091828204019190069054906101000a900460ff1660018111156119ca57fe5b1415611a3e576040517f08c379a000000000000000000000000000000000000000000000000000000000815260040180806020018281038252600a8152602001807f466f7265636c6f7365640000000000000000000000000000000000000000000081525060200191505060405180910390fd5b6000831415611ab5576040517f08c379a000000000000000000000000000000000000000000000000000000000815260040180806020018281038252600f8152602001807f496e636f7272656374205072696365000000000000000000000000000000000081525060200191505060405180910390fd5b8260008560ff1660098110611ac657fe5b018190555060008460ff1660098110611adb57fe5b01547f854d6511a28585103049c7770618450f7c9aeb580c69db2913d63869663f475160405160405180910390a250505050565b600080611b1b836125c6565b905060378360ff1660098110611b2d57fe5b01548110611b3f576000915050611b67565b611b638160378560ff1660098110611b5357fe5b015461268b90919063ffffffff16565b9150505b919050565b81600960009054906101000a900473ffffffffffffffffffffffffffffffffffffffff1673ffffffffffffffffffffffffffffffffffffffff16636352211e826040518263ffffffff1660e01b8152600401808260ff16815260200191505060206040518083038186803b158015611be357600080fd5b505afa158015611bf7573d6000803e3d6000fd5b505050506040513d6020811015611c0d57600080fd5b810190808051906020019092919050505073ffffffffffffffffffffffffffffffffffffffff163373ffffffffffffffffffffffffffffffffffffffff1614611cbe576040517f08c379a000000000000000000000000000000000000000000000000000000000815260040180806020018281038252600a8152602001807f4e6f7420706174726f6e0000000000000000000000000000000000000000000081525060200191505060405180910390fd5b60006001811115611ccb57fe5b604f8460ff1660098110611cdb57fe5b602091828204019190069054906101000a900460ff166001811115611cfc57fe5b1415611d70576040517f08c379a000000000000000000000000000000000000000000000000000000000815260040180806020018281038252600a8152602001807f466f7265636c6f7365640000000000000000000000000000000000000000000081525060200191505060405180910390fd5b60a4825110611de7576040517f08c379a000000000000000000000000000000000000000000000000000000000815260040180806020018281038252600e8152602001807f55726c20746f6f206c6f6e672e2000000000000000000000000000000000000081525060200191505060405180910390fd5b8160138460ff1660098110611df857fe5b019080519060200190611e0c929190612c24565b5060138360ff1660098110611e1d57fe5b016040518082805460018160011615610100020316600290048015611e795780601f10611e57576101008083540402835291820191611e79565b820191906000526020600020905b815481529060010190602001808311611e65575b505091505060405180910390207f7b9980f5b952e211ecad2df46ac6532cf75aa00539e40db3ad5ba66f96a2a89060405160405180910390a2505050565b600180811115611ec357fe5b604f8260ff1660098110611ed357fe5b602091828204019190069054906101000a900460ff166001811115611ef457fe5b14156120de576000611f05826125c6565b905060378260ff1660098110611f1757fe5b01548110611fd257611f9b611f7b82611f6d60378660ff1660098110611f3957fe5b0154611f5f602e8860ff1660098110611f4e57fe5b01544261268b90919063ffffffff16565b61293b90919063ffffffff16565b61297590919063ffffffff16565b602e8460ff1660098110611f8b57fe5b015461266c90919063ffffffff16565b602e8360ff1660098110611fab57fe5b018190555060378260ff1660098110611fc057fe5b01549050611fcd82612aca565b612022565b42602e8360ff1660098110611fe357fe5b018190555061200c8160258460ff1660098110611ffc57fe5b015461266c90919063ffffffff16565b60258360ff166009811061201c57fe5b01819055505b6120468160378460ff166009811061203657fe5b015461268b90919063ffffffff16565b60378360ff166009811061205657fe5b018190555061207f81601c8460ff166009811061206f57fe5b015461266c90919063ffffffff16565b601c8360ff166009811061208f57fe5b01819055506120a98160415461266c90919063ffffffff16565b604181905550807f54acb82a9e70d7c289b149758d23167c915428ae854a7aa4abe5bf2f4ef29f3660405160405180910390a2505b50565b60415481565b603781600981106120f457fe5b016000915090505481565b80600960009054906101000a900473ffffffffffffffffffffffffffffffffffffffff1673ffffffffffffffffffffffffffffffffffffffff16636352211e826040518263ffffffff1660e01b8152600401808260ff16815260200191505060206040518083038186803b15801561217657600080fd5b505afa15801561218a573d6000803e3d6000fd5b505050506040513d60208110156121a057600080fd5b810190808051906020019092919050505073ffffffffffffffffffffffffffffffffffffffff163373ffffffffffffffffffffffffffffffffffffffff1614612251576040517f08c379a000000000000000000000000000000000000000000000000000000000815260040180806020018281038252600a8152602001807f4e6f7420706174726f6e0000000000000000000000000000000000000000000081525060200191505060405180910390fd5b8161225b81611eb7565b6122768360378560ff166009811061226f57fe5b015461299b565b505050565b81600960009054906101000a900473ffffffffffffffffffffffffffffffffffffffff1673ffffffffffffffffffffffffffffffffffffffff16636352211e826040518263ffffffff1660e01b8152600401808260ff16815260200191505060206040518083038186803b1580156122f257600080fd5b505afa158015612306573d6000803e3d6000fd5b505050506040513d602081101561231c57600080fd5b810190808051906020019092919050505073ffffffffffffffffffffffffffffffffffffffff163373ffffffffffffffffffffffffffffffffffffffff16146123cd576040517f08c379a000000000000000000000000000000000000000000000000000000000815260040180806020018281038252600a8152602001807f4e6f7420706174726f6e0000000000000000000000000000000000000000000081525060200191505060405180910390fd5b600060018111156123da57fe5b604f8460ff16600981106123ea57fe5b602091828204019190069054906101000a900460ff16600181111561240b57fe5b141561247f576040517f08c379a000000000000000000000000000000000000000000000000000000000815260040180806020018281038252600a8152602001807f466f7265636c6f7365640000000000000000000000000000000000000000000081525060200191505060405180910390fd5b602e8251146124f6576040517f08c379a000000000000000000000000000000000000000000000000000000000815260040180806020018281038252600f8152602001807f48617368206e6f742076616c696420000000000000000000000000000000000081525060200191505060405180910390fd5b81600a8460ff166009811061250757fe5b01908051906020019061251b929190612c24565b50600a8360ff166009811061252c57fe5b0160405180828054600181600116156101000203166002900480156125885780601f10612566576101008083540402835291820191612588565b820191906000526020600020905b815481529060010190602001808311612574575b505091505060405180910390207fb35914457337eefea19e9e8e1e6d321f52080ba33b0410fbdc5c40187c37103c60405160405180910390a2505050565b600061264d6301e1338061263f604e54612631604d54612623612603602e8a60ff16600981106125f257fe5b01544261268b90919063ffffffff16565b60008a60ff166009811061261357fe5b015461293b90919063ffffffff16565b61293b90919063ffffffff16565b61297590919063ffffffff16565b61297590919063ffffffff16565b9050919050565b601c816009811061266157fe5b016000915090505481565b60008082840190508381101561268157600080fd5b8091505092915050565b60008282111561269a57600080fd5b600082840390508091505092915050565b6127486126e360448660ff16600981106126c157fe5b0154602e8760ff16600981106126d357fe5b015461268b90919063ffffffff16565b604360008760ff1660ff16815260200190815260200160002060008673ffffffffffffffffffffffffffffffffffffffff1673ffffffffffffffffffffffffffffffffffffffff1681526020019081526020016000205461266c90919063ffffffff16565b604360008660ff1660ff16815260200190815260200160002060008573ffffffffffffffffffffffffffffffffffffffff1673ffffffffffffffffffffffffffffffffffffffff16815260200190815260200160002081905550600960009054906101000a900473ffffffffffffffffffffffffffffffffffffffff1673ffffffffffffffffffffffffffffffffffffffff166323b872dd8484876040518463ffffffff1660e01b8152600401808473ffffffffffffffffffffffffffffffffffffffff1673ffffffffffffffffffffffffffffffffffffffff1681526020018373ffffffffffffffffffffffffffffffffffffffff1673ffffffffffffffffffffffffffffffffffffffff1681526020018260ff1681526020019350505050600060405180830381600087803b15801561288257600080fd5b505af1158015612896573d6000803e3d6000fd5b505050508060008560ff16600981106128ab57fe5b01819055504260448560ff16600981106128c157fe5b01819055506001604260008660ff1660ff16815260200190815260200160002060008473ffffffffffffffffffffffffffffffffffffffff1673ffffffffffffffffffffffffffffffffffffffff16815260200190815260200160002060006101000a81548160ff02191690831515021790555050505050565b60008083141561294e576000905061296f565b600082840290508284828161295f57fe5b041461296a57600080fd5b809150505b92915050565b600080821161298357600080fd5b600082848161298e57fe5b0490508091505092915050565b8060378360ff16600981106129ac57fe5b01541015612a22576040517f08c379a00000000000000000000000000000000000000000000000000000000081526004018080602001828103825260148152602001807f5769746864726177696e6720746f6f206d75636800000000000000000000000081525060200191505060405180910390fd5b612a468160378460ff1660098110612a3657fe5b015461268b90919063ffffffff16565b60378360ff1660098110612a5657fe5b01819055503373ffffffffffffffffffffffffffffffffffffffff166108fc829081150290604051600060405180830381858888f19350505050158015612aa1573d6000803e3d6000fd5b50600060378360ff1660098110612ab457fe5b01541415612ac657612ac582612aca565b5b5050565b6000600960009054906101000a900473ffffffffffffffffffffffffffffffffffffffff1673ffffffffffffffffffffffffffffffffffffffff16636352211e836040518263ffffffff1660e01b8152600401808260ff16815260200191505060206040518083038186803b158015612b4257600080fd5b505afa158015612b56573d6000803e3d6000fd5b505050506040513d6020811015612b6c57600080fd5b81019080805190602001909291905050509050612b8c82823060006126ab565b6000604f8360ff1660098110612b9e57fe5b602091828204019190066101000a81548160ff02191690836001811115612bc157fe5b0217905550600060258360ff1660098110612bd857fe5b01819055508073ffffffffffffffffffffffffffffffffffffffff167f6d6bbefef62d4cb6d0e3a4dd306a71d3632319b1e03659513df86b247dd657fe60405160405180910390a25050565b828054600181600116156101000203166002900490600052602060002090601f016020900481019282601f10612c6557805160ff1916838001178555612c93565b82800160010185558215612c93579182015b82811115612c92578251825591602001919060010190612c77565b5b509050612ca09190612ca4565b5090565b612cc691905b80821115612cc2576000816000905550600101612caa565b5090565b9056fea165627a7a72305820190f700b708cdb7cab4d1d2a9f8416283fa141b51fb255f914349accfbb0e27c0029516d567873514e664d52356b4d55703961746767337557626a41344c5a6b556e7a354d4648624b39576e58794853",
  "source": "pragma solidity ^0.5.0;\nimport \"./interfaces/IERC721Full.sol\";\nimport \"./utils/SafeMath.sol\";\n\ncontract VitalikSteward {\n    \n    /*\n    This smart contract collects patronage from current owner through a Harberger tax model and \n    takes stewardship of the asset token if the patron can't pay anymore.\n\n    Harberger Tax (COST): \n    - Asset is always on sale.\n    - You have to have a price set.\n    - Tax (Patronage) is paid to maintain ownership.\n    - Steward maints control over ERC721.\n    */\n    using SafeMath for uint256;\n\n    uint8 constant numberOfTokens = 9;\n    \n    uint256[numberOfTokens] public price; //in wei\n    IERC721Full public assetToken; // ERC721 NFT.\n    string[numberOfTokens] public hashes; //Image hashes IPFS\n    string[numberOfTokens] public urls;\n\n    uint256[numberOfTokens] public totalCollected; // all patronage ever collected\n    uint256[numberOfTokens] public currentCollected; // amount currently collected for patron\n    uint256[numberOfTokens] public timeLastCollected;\n    uint256[numberOfTokens] public deposit;\n\n    address payable public organization; // non-profit organization\n    uint256 public organizationFund;\n    \n    mapping(uint8 => mapping (address => bool)) public patrons;\n    mapping(uint8 => mapping (address => uint256)) public timeHeld;\n\n    uint256[numberOfTokens] public timeAcquired;\n    \n    // 1200% patronage\n    uint256 patronageNumerator =  12000000000000;\n    uint256 patronageDenominator = 1000000000000;\n\n    enum StewardState { Foreclosed, Owned }\n    StewardState[numberOfTokens] public state;\n\n    constructor(address payable _organization, address _assetToken) public {\n        assetToken = IERC721Full(_assetToken);\n        assetToken.setup(numberOfTokens, \"FIX-ME\");\n        organization = _organization;\n        for (uint8 i = 0; i < numberOfTokens; ++i){\n          state[i] = StewardState.Foreclosed;\n        }\n        for (uint8 i = 0; i < numberOfTokens; ++i){\n          hashes[i] = \"QmVxsQNfMR5kMUp9atgg3uWbjA4LZkUnz5MFHbK9WnXyHS\";\n        }\n        for (uint8 i = 0; i < numberOfTokens; ++i){\n          urls[i] = \"https://wildcards.world\";\n        }\n    }\n\n    event LogBuy(address indexed owner, uint256 indexed price);\n    event LogPriceChange(uint256 indexed newPrice);\n    event LogImageChange(string indexed newImage);\n    event LogUrlChange(string indexed newUrl);\n    event LogForeclosure(address indexed prevOwner);\n    event LogCollection(uint256 indexed collected);\n\n    modifier onlyPatron(uint8 tokenIndex) {\n        require(msg.sender == assetToken.ownerOf(tokenIndex), \"Not patron\");\n        _;\n    }\n\n    modifier onlyReceivingOrganization() {\n        require(msg.sender == organization, \"Not organization\");\n        _;\n    }\n\n    modifier collectPatronage(uint8 tokenIndex) {\n       _collectPatronage(tokenIndex);\n       _;\n    }\n\n    function changeReceivingOrganization(address payable _newReceivingOrganization) public onlyReceivingOrganization {\n        organization = _newReceivingOrganization;\n    }\n\n    /* public view functions */\n    function patronageOwed(uint8 tokenIndex) public view returns (uint256 patronageDue) {\n        return price[tokenIndex].mul(now.sub(timeLastCollected[tokenIndex])).mul(patronageNumerator)\n            .div(patronageDenominator).div(365 days);\n    }\n\n    function patronageOwedWithTimestamp(uint8 tokenIndex) public view returns (uint256 patronageDue, uint256 timestamp) {\n        return (patronageOwed(tokenIndex), now);\n    }\n\n    // TODO: currently patronage isn't shared. We need to think of best way to solve this.\n    function foreclosed(uint8 tokenIndex) public view returns (bool) {\n        // returns whether it is in foreclosed state or not\n        // depending on whether deposit covers patronage due\n        // useful helper function when price should be zero, but contract doesn't reflect it yet.\n        uint256 collection = patronageOwed(tokenIndex);\n        if(collection >= deposit[tokenIndex]) {\n            return true;\n        } else {\n            return false;\n        }\n    }\n\n    // same function as above, basically\n    function depositAbleToWithdraw(uint8 tokenIndex) public view returns (uint256) {\n        uint256 collection = patronageOwed(tokenIndex);\n        if(collection >= deposit[tokenIndex]) {\n            return 0;\n        } else {\n            return deposit[tokenIndex].sub(collection);\n        }\n    }\n\n    /*\n    now + deposit/patronage per second \n    now + depositAbleToWithdraw/(price*nume/denom/365).\n    */\n    function foreclosureTime(uint8 tokenIndex) public view returns (uint256) {\n        // patronage per second\n        uint256 pps = price[tokenIndex].mul(patronageNumerator).div(patronageDenominator).div(365 days);\n        return now + depositAbleToWithdraw(tokenIndex).div(pps); // zero division if price is zero.\n    }\n\n    /* actions */\n    function _collectPatronage(uint8 tokenIndex) public {\n        // determine patronage to pay\n        if (state[tokenIndex] == StewardState.Owned) {\n            uint256 collection = patronageOwed(tokenIndex);\n\n            // should foreclose and stake stewardship\n            if (collection >= deposit[tokenIndex]) {\n                // up to when was it actually paid for?\n                timeLastCollected[tokenIndex] = timeLastCollected[tokenIndex].add(((now.sub(timeLastCollected[tokenIndex])).mul(deposit[tokenIndex]).div(collection)));\n                collection = deposit[tokenIndex]; // take what's left.\n\n                _foreclose(tokenIndex);\n            } else  {\n                // just a normal collection\n                timeLastCollected[tokenIndex] = now;\n                currentCollected[tokenIndex] = currentCollected[tokenIndex].add(collection);\n            }\n\n            deposit[tokenIndex] = deposit[tokenIndex].sub(collection);\n            totalCollected[tokenIndex] = totalCollected[tokenIndex].add(collection);\n            organizationFund = organizationFund.add(collection);\n            emit LogCollection(collection);\n        }\n    }\n\n    // note: anyone can deposit\n    function depositWei(uint8 tokenIndex) public payable collectPatronage(tokenIndex) {\n        require(state[tokenIndex] != StewardState.Foreclosed, \"Foreclosed\");\n        deposit[tokenIndex] = deposit[tokenIndex].add(msg.value);\n    }\n\n    function buy(uint8 tokenIndex, uint256 _newPrice) public payable collectPatronage(tokenIndex) {\n        require(_newPrice > 0, \"Price is zero\");\n        require(msg.value > price[tokenIndex], \"Not enough\"); // >, coz need to have at least something for deposit\n        address currentOwner = assetToken.ownerOf(tokenIndex);\n\n        if (state[tokenIndex] == StewardState.Owned) {\n            uint256 totalToPayBack = price[tokenIndex];\n            if(deposit[tokenIndex] > 0) {\n                totalToPayBack = totalToPayBack.add(deposit[tokenIndex]);\n            }\n\n            // pay previous owner their price + deposit back.\n            address payable payableCurrentOwner = address(uint160(currentOwner));\n            payableCurrentOwner.transfer(totalToPayBack);\n        } else if(state[tokenIndex] == StewardState.Foreclosed) {\n            state[tokenIndex] = StewardState.Owned;\n            timeLastCollected[tokenIndex] = now;\n        }\n        \n        deposit[tokenIndex] = msg.value.sub(price[tokenIndex]);\n            transferAssetTokenTo(tokenIndex, currentOwner, msg.sender, _newPrice);\n        emit LogBuy(msg.sender, _newPrice);\n    }\n\n    function changePrice(uint8 tokenIndex, uint256 _newPrice) public onlyPatron(tokenIndex) collectPatronage(tokenIndex) {\n        require(state[tokenIndex] != StewardState.Foreclosed, \"Foreclosed\");\n        require(_newPrice != 0, \"Incorrect Price\");\n        \n        price[tokenIndex] = _newPrice;\n        emit LogPriceChange(price[tokenIndex]);\n    }\n\n    function changeImage(uint8 tokenIndex, string memory _newHash) public onlyPatron(tokenIndex) {\n        require(state[tokenIndex] != StewardState.Foreclosed, \"Foreclosed\");\n        require(bytes(_newHash).length == 46, \"Hash not valid \");\n        \n        hashes[tokenIndex] = _newHash;\n        emit LogImageChange(hashes[tokenIndex]);\n    }\n\n    function changeUrl(uint8 tokenIndex, string memory _newUrl) public onlyPatron(tokenIndex) {\n        require(state[tokenIndex] != StewardState.Foreclosed, \"Foreclosed\");\n        require(bytes(_newUrl).length < 164, \"Url too long. \");\n        \n        urls[tokenIndex] = _newUrl;\n        emit LogUrlChange(urls[tokenIndex]);\n    }\n    \n    function withdrawDeposit(uint8 tokenIndex, uint256 _wei) public onlyPatron(tokenIndex) collectPatronage(tokenIndex) returns (uint256) {\n        _withdrawDeposit(tokenIndex, _wei);\n    }\n\n    function withdrawOrganizationFunds() public {\n        require(msg.sender == organization, \"Not organization\");\n        organization.transfer(organizationFund);\n        organizationFund = 0;\n    }\n\n    function exit(uint8 tokenIndex) public onlyPatron(tokenIndex) collectPatronage(tokenIndex) {\n        _withdrawDeposit(tokenIndex, deposit[tokenIndex]);\n    }\n\n    /* internal */\n\n    function _withdrawDeposit(uint8 tokenIndex, uint256 _wei) internal {\n        // note: can withdraw whole deposit, which puts it in immediate to be foreclosed state.\n        require(deposit[tokenIndex] >= _wei, 'Withdrawing too much');\n\n        deposit[tokenIndex] = deposit[tokenIndex].sub(_wei);\n        msg.sender.transfer(_wei); // msg.sender == patron\n\n        if(deposit[tokenIndex] == 0) {\n            _foreclose(tokenIndex);\n        }\n    }\n\n    function _foreclose(uint8 tokenIndex) internal {\n        // become steward of assetToken (aka foreclose)\n        address currentOwner = assetToken.ownerOf(tokenIndex);\n        transferAssetTokenTo(tokenIndex, currentOwner, address(this), 0);\n        state[tokenIndex] = StewardState.Foreclosed;\n        currentCollected[tokenIndex] = 0;\n\n        emit LogForeclosure(currentOwner);\n    }\n\n    function transferAssetTokenTo(uint8 tokenIndex, address _currentOwner, address _newOwner, uint256 _newPrice) internal {\n        // note: it would also tabulate time held in stewardship by smart contract\n        timeHeld[tokenIndex][_currentOwner] = timeHeld[tokenIndex][_currentOwner].add((timeLastCollected[tokenIndex].sub(timeAcquired[tokenIndex])));\n        \n        assetToken.transferFrom(_currentOwner, _newOwner, tokenIndex);\n\n        price[tokenIndex] = _newPrice;\n        timeAcquired[tokenIndex] = now;\n        patrons[tokenIndex][_newOwner] = true;\n    }\n}\n",
  "sourcePath": "/home/jasoons/Documents/india-hackathon/ethindia/contracts/VitalikSteward.sol",
  "compiler": {
    "name": "solc",
    "version": "0.5.8+commit.23d335f2.Emscripten.clang"
  },
  "schemaVersion": "3.0.11",
  "updatedAt": "2019-08-04T05:13:04.764Z",
  "devdoc": {
    "methods": {}
  },
  "userdoc": {
    "methods": {}
  }
}