{
  "contractName": "VitalikSteward",
  "abi": [
    {
      "constant": true,
      "inputs": [
        {
          "name": "",
          "type": "uint8"
        },
        {
          "name": "",
          "type": "address"
        }
      ],
      "name": "patrons",
      "outputs": [
        {
          "name": "",
          "type": "bool"
        }
      ],
      "payable": false,
      "stateMutability": "view",
      "type": "function",
      "signature": "0x025306c2"
    },
    {
      "constant": true,
      "inputs": [
        {
          "name": "",
          "type": "uint8"
        },
        {
          "name": "",
          "type": "address"
        }
      ],
      "name": "timeHeld",
      "outputs": [
        {
          "name": "",
          "type": "uint256"
        }
      ],
      "payable": false,
      "stateMutability": "view",
      "type": "function",
      "signature": "0x02702d33"
    },
    {
      "constant": true,
      "inputs": [],
      "name": "assetToken",
      "outputs": [
        {
          "name": "",
          "type": "address"
        }
      ],
      "payable": false,
      "stateMutability": "view",
      "type": "function",
      "signature": "0x1083f761"
    },
    {
      "constant": true,
      "inputs": [
        {
          "name": "",
          "type": "uint256"
        }
      ],
      "name": "currentCollected",
      "outputs": [
        {
          "name": "",
          "type": "uint256"
        }
      ],
      "payable": false,
      "stateMutability": "view",
      "type": "function",
      "signature": "0x1b252781"
    },
    {
      "constant": true,
      "inputs": [],
      "name": "organization",
      "outputs": [
        {
          "name": "",
          "type": "address"
        }
      ],
      "payable": false,
      "stateMutability": "view",
      "type": "function",
      "signature": "0x23bd4d7a"
    },
    {
      "constant": true,
      "inputs": [
        {
          "name": "",
          "type": "uint256"
        }
      ],
      "name": "price",
      "outputs": [
        {
          "name": "",
          "type": "uint256"
        }
      ],
      "payable": false,
      "stateMutability": "view",
      "type": "function",
      "signature": "0x26a49e37"
    },
    {
      "constant": true,
      "inputs": [
        {
          "name": "",
          "type": "uint256"
        }
      ],
      "name": "state",
      "outputs": [
        {
          "name": "",
          "type": "uint8"
        }
      ],
      "payable": false,
      "stateMutability": "view",
      "type": "function",
      "signature": "0x3e4f49e6"
    },
    {
      "constant": true,
      "inputs": [
        {
          "name": "",
          "type": "uint256"
        }
      ],
      "name": "timeAcquired",
      "outputs": [
        {
          "name": "",
          "type": "uint256"
        }
      ],
      "payable": false,
      "stateMutability": "view",
      "type": "function",
      "signature": "0x5b2ace64"
    },
    {
      "constant": true,
      "inputs": [
        {
          "name": "",
          "type": "uint256"
        }
      ],
      "name": "timeLastCollected",
      "outputs": [
        {
          "name": "",
          "type": "uint256"
        }
      ],
      "payable": false,
      "stateMutability": "view",
      "type": "function",
      "signature": "0x8cb68899"
    },
    {
      "constant": true,
      "inputs": [],
      "name": "organizationFund",
      "outputs": [
        {
          "name": "",
          "type": "uint256"
        }
      ],
      "payable": false,
      "stateMutability": "view",
      "type": "function",
      "signature": "0xb2d4dded"
    },
    {
      "constant": true,
      "inputs": [
        {
          "name": "",
          "type": "uint256"
        }
      ],
      "name": "deposit",
      "outputs": [
        {
          "name": "",
          "type": "uint256"
        }
      ],
      "payable": false,
      "stateMutability": "view",
      "type": "function",
      "signature": "0xb6b55f25"
    },
    {
      "constant": true,
      "inputs": [
        {
          "name": "",
          "type": "uint256"
        }
      ],
      "name": "totalCollected",
      "outputs": [
        {
          "name": "",
          "type": "uint256"
        }
      ],
      "payable": false,
      "stateMutability": "view",
      "type": "function",
      "signature": "0xc3310052"
    },
    {
      "inputs": [
        {
          "name": "_organization",
          "type": "address"
        },
        {
          "name": "_assetToken",
          "type": "address"
        }
      ],
      "payable": false,
      "stateMutability": "nonpayable",
      "type": "constructor",
      "signature": "constructor"
    },
    {
      "anonymous": false,
      "inputs": [
        {
          "indexed": true,
          "name": "owner",
          "type": "address"
        },
        {
          "indexed": true,
          "name": "price",
          "type": "uint256"
        }
      ],
      "name": "LogBuy",
      "type": "event",
      "signature": "0x4f79409f494e81c38036d80aa8a6507c2cb08d90bfb2fead5519447646b3497e"
    },
    {
      "anonymous": false,
      "inputs": [
        {
          "indexed": true,
          "name": "newPrice",
          "type": "uint256"
        }
      ],
      "name": "LogPriceChange",
      "type": "event",
      "signature": "0x854d6511a28585103049c7770618450f7c9aeb580c69db2913d63869663f4751"
    },
    {
      "anonymous": false,
      "inputs": [
        {
          "indexed": true,
          "name": "prevOwner",
          "type": "address"
        }
      ],
      "name": "LogForeclosure",
      "type": "event",
      "signature": "0x6d6bbefef62d4cb6d0e3a4dd306a71d3632319b1e03659513df86b247dd657fe"
    },
    {
      "anonymous": false,
      "inputs": [
        {
          "indexed": true,
          "name": "collected",
          "type": "uint256"
        }
      ],
      "name": "LogCollection",
      "type": "event",
      "signature": "0x54acb82a9e70d7c289b149758d23167c915428ae854a7aa4abe5bf2f4ef29f36"
    },
    {
      "constant": false,
      "inputs": [
        {
          "name": "_newReceivingOrganization",
          "type": "address"
        }
      ],
      "name": "changeReceivingOrganization",
      "outputs": [],
      "payable": false,
      "stateMutability": "nonpayable",
      "type": "function",
      "signature": "0x4a8bd215"
    },
    {
      "constant": true,
      "inputs": [
        {
          "name": "tokenIndex",
          "type": "uint8"
        }
      ],
      "name": "patronageOwed",
      "outputs": [
        {
          "name": "patronageDue",
          "type": "uint256"
        }
      ],
      "payable": false,
      "stateMutability": "view",
      "type": "function",
      "signature": "0xc03a252b"
    },
    {
      "constant": true,
      "inputs": [
        {
          "name": "tokenIndex",
          "type": "uint8"
        }
      ],
      "name": "patronageOwedWithTimestamp",
      "outputs": [
        {
          "name": "patronageDue",
          "type": "uint256"
        },
        {
          "name": "timestamp",
          "type": "uint256"
        }
      ],
      "payable": false,
      "stateMutability": "view",
      "type": "function",
      "signature": "0x1b638077"
    },
    {
      "constant": true,
      "inputs": [
        {
          "name": "tokenIndex",
          "type": "uint8"
        }
      ],
      "name": "foreclosed",
      "outputs": [
        {
          "name": "",
          "type": "bool"
        }
      ],
      "payable": false,
      "stateMutability": "view",
      "type": "function",
      "signature": "0x43b9c06b"
    },
    {
      "constant": true,
      "inputs": [
        {
          "name": "tokenIndex",
          "type": "uint8"
        }
      ],
      "name": "depositAbleToWithdraw",
      "outputs": [
        {
          "name": "",
          "type": "uint256"
        }
      ],
      "payable": false,
      "stateMutability": "view",
      "type": "function",
      "signature": "0x9de1535b"
    },
    {
      "constant": true,
      "inputs": [
        {
          "name": "tokenIndex",
          "type": "uint8"
        }
      ],
      "name": "foreclosureTime",
      "outputs": [
        {
          "name": "",
          "type": "uint256"
        }
      ],
      "payable": false,
      "stateMutability": "view",
      "type": "function",
      "signature": "0x71328f87"
    },
    {
      "constant": false,
      "inputs": [
        {
          "name": "tokenIndex",
          "type": "uint8"
        }
      ],
      "name": "_collectPatronage",
      "outputs": [],
      "payable": false,
      "stateMutability": "nonpayable",
      "type": "function",
      "signature": "0xa1fb2b66"
    },
    {
      "constant": false,
      "inputs": [
        {
          "name": "tokenIndex",
          "type": "uint8"
        }
      ],
      "name": "depositWei",
      "outputs": [],
      "payable": true,
      "stateMutability": "payable",
      "type": "function",
      "signature": "0x5dade65d"
    },
    {
      "constant": false,
      "inputs": [
        {
          "name": "tokenIndex",
          "type": "uint8"
        },
        {
          "name": "_newPrice",
          "type": "uint256"
        }
      ],
      "name": "buy",
      "outputs": [],
      "payable": true,
      "stateMutability": "payable",
      "type": "function",
      "signature": "0x62f791c0"
    },
    {
      "constant": false,
      "inputs": [
        {
          "name": "tokenIndex",
          "type": "uint8"
        },
        {
          "name": "_newPrice",
          "type": "uint256"
        }
      ],
      "name": "changePrice",
      "outputs": [],
      "payable": false,
      "stateMutability": "nonpayable",
      "type": "function",
      "signature": "0x91778b9c"
    },
    {
      "constant": false,
      "inputs": [
        {
          "name": "tokenIndex",
          "type": "uint8"
        },
        {
          "name": "_wei",
          "type": "uint256"
        }
      ],
      "name": "withdrawDeposit",
      "outputs": [
        {
          "name": "",
          "type": "uint256"
        }
      ],
      "payable": false,
      "stateMutability": "nonpayable",
      "type": "function",
      "signature": "0x9153b268"
    },
    {
      "constant": false,
      "inputs": [],
      "name": "withdrawOrganizationFunds",
      "outputs": [],
      "payable": false,
      "stateMutability": "nonpayable",
      "type": "function",
      "signature": "0x7f1dd4cf"
    },
    {
      "constant": false,
      "inputs": [
        {
          "name": "tokenIndex",
          "type": "uint8"
        }
      ],
      "name": "exit",
      "outputs": [],
      "payable": false,
      "stateMutability": "nonpayable",
      "type": "function",
      "signature": "0xbac6b5d3"
    }
  ],
  "bytecode": "0x6080604052650ae9f7bcc000603b5564e8d4a51000603c553480156200002457600080fd5b506040516040806200244c833981018060405260408110156200004657600080fd5b81019080805190602001909291908051906020019092919050505080600960006101000a81548173ffffffffffffffffffffffffffffffffffffffff021916908373ffffffffffffffffffffffffffffffffffffffff160217905550600960009054906101000a900473ffffffffffffffffffffffffffffffffffffffff1673ffffffffffffffffffffffffffffffffffffffff166321078ec860096040518263ffffffff167c0100000000000000000000000000000000000000000000000000000000028152600401808260ff1660ff16815260200180602001828103825260068152602001807f4649582d4d45000000000000000000000000000000000000000000000000000081525060200192505050600060405180830381600087803b1580156200017457600080fd5b505af115801562000189573d6000803e3d6000fd5b5050505081602e60006101000a81548173ffffffffffffffffffffffffffffffffffffffff021916908373ffffffffffffffffffffffffffffffffffffffff16021790555060008090505b600960ff168160ff1610156200022e576000603d8260ff16600981101515620001f957fe5b602091828204019190066101000a81548160ff021916908360018111156200021d57fe5b0217905550806001019050620001d4565b50505061220b80620002416000396000f3fe608060405260043610610149576000357c0100000000000000000000000000000000000000000000000000000000900463ffffffff168063025306c21461014e57806302702d33146101c45780631083f761146102365780631b2527811461028d5780631b638077146102dc57806323bd4d7a1461033557806326a49e371461038c5780633e4f49e6146103db57806343b9c06b146104385780634a8bd2151461048e5780635b2ace64146104df5780635dade65d1461052e57806362f791c01461055f57806371328f871461059a5780637f1dd4cf146105ec5780638cb68899146106035780639153b2681461065257806391778b9c146106ae5780639de1535b146106f6578063a1fb2b6614610748578063b2d4dded14610786578063b6b55f25146107b1578063bac6b5d314610800578063c03a252b1461083e578063c331005214610890575b600080fd5b34801561015a57600080fd5b506101aa6004803603604081101561017157600080fd5b81019080803560ff169060200190929190803573ffffffffffffffffffffffffffffffffffffffff1690602001909291905050506108df565b604051808215151515815260200191505060405180910390f35b3480156101d057600080fd5b50610220600480360360408110156101e757600080fd5b81019080803560ff169060200190929190803573ffffffffffffffffffffffffffffffffffffffff16906020019092919050505061090e565b6040518082815260200191505060405180910390f35b34801561024257600080fd5b5061024b610933565b604051808273ffffffffffffffffffffffffffffffffffffffff1673ffffffffffffffffffffffffffffffffffffffff16815260200191505060405180910390f35b34801561029957600080fd5b506102c6600480360360208110156102b057600080fd5b8101908080359060200190929190505050610959565b6040518082815260200191505060405180910390f35b3480156102e857600080fd5b50610318600480360360208110156102ff57600080fd5b81019080803560ff169060200190929190505050610973565b604051808381526020018281526020019250505060405180910390f35b34801561034157600080fd5b5061034a610989565b604051808273ffffffffffffffffffffffffffffffffffffffff1673ffffffffffffffffffffffffffffffffffffffff16815260200191505060405180910390f35b34801561039857600080fd5b506103c5600480360360208110156103af57600080fd5b81019080803590602001909291905050506109af565b6040518082815260200191505060405180910390f35b3480156103e757600080fd5b50610414600480360360208110156103fe57600080fd5b81019080803590602001909291905050506109c9565b6040518082600181111561042457fe5b60ff16815260200191505060405180910390f35b34801561044457600080fd5b506104746004803603602081101561045b57600080fd5b81019080803560ff1690602001909291905050506109f2565b604051808215151515815260200191505060405180910390f35b34801561049a57600080fd5b506104dd600480360360208110156104b157600080fd5b81019080803573ffffffffffffffffffffffffffffffffffffffff169060200190929190505050610a31565b005b3480156104eb57600080fd5b506105186004803603602081101561050257600080fd5b8101908080359060200190929190505050610b3a565b6040518082815260200191505060405180910390f35b61055d6004803603602081101561054457600080fd5b81019080803560ff169060200190929190505050610b54565b005b6105986004803603604081101561057557600080fd5b81019080803560ff16906020019092919080359060200190929190505050610c55565b005b3480156105a657600080fd5b506105d6600480360360208110156105bd57600080fd5b81019080803560ff169060200190929190505050611055565b6040518082815260200191505060405180910390f35b3480156105f857600080fd5b506106016110d1565b005b34801561060f57600080fd5b5061063c6004803603602081101561062657600080fd5b810190808035906020019092919050505061120b565b6040518082815260200191505060405180910390f35b34801561065e57600080fd5b506106986004803603604081101561067557600080fd5b81019080803560ff16906020019092919080359060200190929190505050611225565b6040518082815260200191505060405180910390f35b3480156106ba57600080fd5b506106f4600480360360408110156106d157600080fd5b81019080803560ff169060200190929190803590602001909291905050506113b3565b005b34801561070257600080fd5b506107326004803603602081101561071957600080fd5b81019080803560ff1690602001909291905050506116ba565b6040518082815260200191505060405180910390f35b34801561075457600080fd5b506107846004803603602081101561076b57600080fd5b81019080803560ff16906020019092919050505061171d565b005b34801561079257600080fd5b5061079b611965565b6040518082815260200191505060405180910390f35b3480156107bd57600080fd5b506107ea600480360360208110156107d457600080fd5b810190808035906020019092919050505061196b565b6040518082815260200191505060405180910390f35b34801561080c57600080fd5b5061083c6004803603602081101561082357600080fd5b81019080803560ff169060200190929190505050611985565b005b34801561084a57600080fd5b5061087a6004803603602081101561086157600080fd5b81019080803560ff169060200190929190505050611b21565b6040518082815260200191505060405180910390f35b34801561089c57600080fd5b506108c9600480360360208110156108b357600080fd5b8101908080359060200190929190505050611bb3565b6040518082815260200191505060405180910390f35b60306020528160005260406000206020528060005260406000206000915091509054906101000a900460ff1681565b6031602052816000526040600020602052806000526040600020600091509150505481565b600960009054906101000a900473ffffffffffffffffffffffffffffffffffffffff1681565b60138160098110151561096857fe5b016000915090505481565b60008061097f83611b21565b4291509150915091565b602e60009054906101000a900473ffffffffffffffffffffffffffffffffffffffff1681565b6000816009811015156109be57fe5b016000915090505481565b603d816009811015156109d857fe5b60209182820401919006915054906101000a900460ff1681565b6000806109fe83611b21565b905060258360ff16600981101515610a1257fe5b015481101515610a26576001915050610a2c565b60009150505b919050565b602e60009054906101000a900473ffffffffffffffffffffffffffffffffffffffff1673ffffffffffffffffffffffffffffffffffffffff163373ffffffffffffffffffffffffffffffffffffffff16141515610af6576040517f08c379a00000000000000000000000000000000000000000000000000000000081526004018080602001828103825260108152602001807f4e6f74206f7267616e697a6174696f6e0000000000000000000000000000000081525060200191505060405180910390fd5b80602e60006101000a81548173ffffffffffffffffffffffffffffffffffffffff021916908373ffffffffffffffffffffffffffffffffffffffff16021790555050565b603281600981101515610b4957fe5b016000915090505481565b80610b5e8161171d565b60006001811115610b6b57fe5b603d8360ff16600981101515610b7d57fe5b602091828204019190069054906101000a900460ff166001811115610b9e57fe5b14151515610c14576040517f08c379a000000000000000000000000000000000000000000000000000000000815260040180806020018281038252600a8152602001807f466f7265636c6f7365640000000000000000000000000000000000000000000081525060200191505060405180910390fd5b610c3a3460258460ff16600981101515610c2a57fe5b0154611bcd90919063ffffffff16565b60258360ff16600981101515610c4c57fe5b01819055505050565b81610c5f8161171d565b600082111515610cd7576040517f08c379a000000000000000000000000000000000000000000000000000000000815260040180806020018281038252600d8152602001807f5072696365206973207a65726f0000000000000000000000000000000000000081525060200191505060405180910390fd5b60008360ff16600981101515610ce957fe5b015434111515610d61576040517f08c379a000000000000000000000000000000000000000000000000000000000815260040180806020018281038252600a8152602001807f4e6f7420656e6f7567680000000000000000000000000000000000000000000081525060200191505060405180910390fd5b6000600960009054906101000a900473ffffffffffffffffffffffffffffffffffffffff1673ffffffffffffffffffffffffffffffffffffffff16636352211e856040518263ffffffff167c0100000000000000000000000000000000000000000000000000000000028152600401808260ff16815260200191505060206040518083038186803b158015610df557600080fd5b505afa158015610e09573d6000803e3d6000fd5b505050506040513d6020811015610e1f57600080fd5b81019080805190602001909291905050509050600180811115610e3e57fe5b603d8560ff16600981101515610e5057fe5b602091828204019190069054906101000a900460ff166001811115610e7157fe5b1415610f26576000808560ff16600981101515610e8a57fe5b01549050600060258660ff16600981101515610ea257fe5b01541115610ed357610ed060258660ff16600981101515610ebf57fe5b015482611bcd90919063ffffffff16565b90505b60008290508073ffffffffffffffffffffffffffffffffffffffff166108fc839081150290604051600060405180830381858888f19350505050158015610f1e573d6000803e3d6000fd5b505050610fc2565b60006001811115610f3357fe5b603d8560ff16600981101515610f4557fe5b602091828204019190069054906101000a900460ff166001811115610f6657fe5b1415610fc1576001603d8560ff16600981101515610f8057fe5b602091828204019190066101000a81548160ff02191690836001811115610fa357fe5b021790555042601c8560ff16600981101515610fbb57fe5b01819055505b5b610fe860008560ff16600981101515610fd757fe5b015434611bee90919063ffffffff16565b60258560ff16600981101515610ffa57fe5b018190555061100b84823386611c10565b823373ffffffffffffffffffffffffffffffffffffffff167f4f79409f494e81c38036d80aa8a6507c2cb08d90bfb2fead5519447646b3497e60405160405180910390a350505050565b6000806110aa6301e1338061109c603c5461108e603b5460008960ff1660098110151561107e57fe5b0154611ec490919063ffffffff16565b611f0290919063ffffffff16565b611f0290919063ffffffff16565b90506110c7816110b9856116ba565b611f0290919063ffffffff16565b4201915050919050565b602e60009054906101000a900473ffffffffffffffffffffffffffffffffffffffff1673ffffffffffffffffffffffffffffffffffffffff163373ffffffffffffffffffffffffffffffffffffffff16141515611196576040517f08c379a00000000000000000000000000000000000000000000000000000000081526004018080602001828103825260108152602001807f4e6f74206f7267616e697a6174696f6e0000000000000000000000000000000081525060200191505060405180910390fd5b602e60009054906101000a900473ffffffffffffffffffffffffffffffffffffffff1673ffffffffffffffffffffffffffffffffffffffff166108fc602f549081150290604051600060405180830381858888f19350505050158015611200573d6000803e3d6000fd5b506000602f81905550565b601c8160098110151561121a57fe5b016000915090505481565b600082600960009054906101000a900473ffffffffffffffffffffffffffffffffffffffff1673ffffffffffffffffffffffffffffffffffffffff16636352211e826040518263ffffffff167c0100000000000000000000000000000000000000000000000000000000028152600401808260ff16815260200191505060206040518083038186803b1580156112ba57600080fd5b505afa1580156112ce573d6000803e3d6000fd5b505050506040513d60208110156112e457600080fd5b810190808051906020019092919050505073ffffffffffffffffffffffffffffffffffffffff163373ffffffffffffffffffffffffffffffffffffffff16141515611397576040517f08c379a000000000000000000000000000000000000000000000000000000000815260040180806020018281038252600a8152602001807f4e6f7420706174726f6e0000000000000000000000000000000000000000000081525060200191505060405180910390fd5b836113a18161171d565b6113ab8585611f2c565b505092915050565b81600960009054906101000a900473ffffffffffffffffffffffffffffffffffffffff1673ffffffffffffffffffffffffffffffffffffffff16636352211e826040518263ffffffff167c0100000000000000000000000000000000000000000000000000000000028152600401808260ff16815260200191505060206040518083038186803b15801561144657600080fd5b505afa15801561145a573d6000803e3d6000fd5b505050506040513d602081101561147057600080fd5b810190808051906020019092919050505073ffffffffffffffffffffffffffffffffffffffff163373ffffffffffffffffffffffffffffffffffffffff16141515611523576040517f08c379a000000000000000000000000000000000000000000000000000000000815260040180806020018281038252600a8152602001807f4e6f7420706174726f6e0000000000000000000000000000000000000000000081525060200191505060405180910390fd5b8261152d8161171d565b6000600181111561153a57fe5b603d8560ff1660098110151561154c57fe5b602091828204019190069054906101000a900460ff16600181111561156d57fe5b141515156115e3576040517f08c379a000000000000000000000000000000000000000000000000000000000815260040180806020018281038252600a8152602001807f466f7265636c6f7365640000000000000000000000000000000000000000000081525060200191505060405180910390fd5b6000831415151561165c576040517f08c379a000000000000000000000000000000000000000000000000000000000815260040180806020018281038252600f8152602001807f496e636f7272656374205072696365000000000000000000000000000000000081525060200191505060405180910390fd5b8260008560ff1660098110151561166f57fe5b018190555060008460ff1660098110151561168657fe5b01547f854d6511a28585103049c7770618450f7c9aeb580c69db2913d63869663f475160405160405180910390a250505050565b6000806116c683611b21565b905060258360ff166009811015156116da57fe5b0154811015156116ee576000915050611718565b6117148160258560ff1660098110151561170457fe5b0154611bee90919063ffffffff16565b9150505b919050565b60018081111561172957fe5b603d8260ff1660098110151561173b57fe5b602091828204019190069054906101000a900460ff16600181111561175c57fe5b141561196257600061176d82611b21565b905060258260ff1660098110151561178157fe5b0154811015156118485761180d6117eb826117dd60258660ff166009811015156117a757fe5b01546117cf601c8860ff166009811015156117be57fe5b015442611bee90919063ffffffff16565b611ec490919063ffffffff16565b611f0290919063ffffffff16565b601c8460ff166009811015156117fd57fe5b0154611bcd90919063ffffffff16565b601c8360ff1660098110151561181f57fe5b018190555060258260ff1660098110151561183657fe5b0154905061184382612065565b61189e565b42601c8360ff1660098110151561185b57fe5b01819055506118868160138460ff1660098110151561187657fe5b0154611bcd90919063ffffffff16565b60138360ff1660098110151561189857fe5b01819055505b6118c48160258460ff166009811015156118b457fe5b0154611bee90919063ffffffff16565b60258360ff166009811015156118d657fe5b018190555061190181600a8460ff166009811015156118f157fe5b0154611bcd90919063ffffffff16565b600a8360ff1660098110151561191357fe5b018190555061192d81602f54611bcd90919063ffffffff16565b602f81905550807f54acb82a9e70d7c289b149758d23167c915428ae854a7aa4abe5bf2f4ef29f3660405160405180910390a2505b50565b602f5481565b60258160098110151561197a57fe5b016000915090505481565b80600960009054906101000a900473ffffffffffffffffffffffffffffffffffffffff1673ffffffffffffffffffffffffffffffffffffffff16636352211e826040518263ffffffff167c0100000000000000000000000000000000000000000000000000000000028152600401808260ff16815260200191505060206040518083038186803b158015611a1857600080fd5b505afa158015611a2c573d6000803e3d6000fd5b505050506040513d6020811015611a4257600080fd5b810190808051906020019092919050505073ffffffffffffffffffffffffffffffffffffffff163373ffffffffffffffffffffffffffffffffffffffff16141515611af5576040517f08c379a000000000000000000000000000000000000000000000000000000000815260040180806020018281038252600a8152602001807f4e6f7420706174726f6e0000000000000000000000000000000000000000000081525060200191505060405180910390fd5b81611aff8161171d565b611b1c8360258560ff16600981101515611b1557fe5b0154611f2c565b505050565b6000611bac6301e13380611b9e603c54611b90603b54611b82611b60601c8a60ff16600981101515611b4f57fe5b015442611bee90919063ffffffff16565b60008a60ff16600981101515611b7257fe5b0154611ec490919063ffffffff16565b611ec490919063ffffffff16565b611f0290919063ffffffff16565b611f0290919063ffffffff16565b9050919050565b600a81600981101515611bc257fe5b016000915090505481565b6000808284019050838110151515611be457600080fd5b8091505092915050565b6000828211151515611bff57600080fd5b600082840390508091505092915050565b611cb1611c4c60328660ff16600981101515611c2857fe5b0154601c8760ff16600981101515611c3c57fe5b0154611bee90919063ffffffff16565b603160008760ff1660ff16815260200190815260200160002060008673ffffffffffffffffffffffffffffffffffffffff1673ffffffffffffffffffffffffffffffffffffffff16815260200190815260200160002054611bcd90919063ffffffff16565b603160008660ff1660ff16815260200190815260200160002060008573ffffffffffffffffffffffffffffffffffffffff1673ffffffffffffffffffffffffffffffffffffffff16815260200190815260200160002081905550600960009054906101000a900473ffffffffffffffffffffffffffffffffffffffff1673ffffffffffffffffffffffffffffffffffffffff166323b872dd8484876040518463ffffffff167c0100000000000000000000000000000000000000000000000000000000028152600401808473ffffffffffffffffffffffffffffffffffffffff1673ffffffffffffffffffffffffffffffffffffffff1681526020018373ffffffffffffffffffffffffffffffffffffffff1673ffffffffffffffffffffffffffffffffffffffff1681526020018260ff1681526020019350505050600060405180830381600087803b158015611e0757600080fd5b505af1158015611e1b573d6000803e3d6000fd5b505050508060008560ff16600981101515611e3257fe5b01819055504260328560ff16600981101515611e4a57fe5b01819055506001603060008660ff1660ff16815260200190815260200160002060008473ffffffffffffffffffffffffffffffffffffffff1673ffffffffffffffffffffffffffffffffffffffff16815260200190815260200160002060006101000a81548160ff02191690831515021790555050505050565b600080831415611ed75760009050611efc565b60008284029050828482811515611eea57fe5b04141515611ef757600080fd5b809150505b92915050565b60008082111515611f1257600080fd5b60008284811515611f1f57fe5b0490508091505092915050565b8060258360ff16600981101515611f3f57fe5b015410151515611fb7576040517f08c379a00000000000000000000000000000000000000000000000000000000081526004018080602001828103825260148152602001807f5769746864726177696e6720746f6f206d75636800000000000000000000000081525060200191505060405180910390fd5b611fdd8160258460ff16600981101515611fcd57fe5b0154611bee90919063ffffffff16565b60258360ff16600981101515611fef57fe5b01819055503373ffffffffffffffffffffffffffffffffffffffff166108fc829081150290604051600060405180830381858888f1935050505015801561203a573d6000803e3d6000fd5b50600060258360ff1660098110151561204f57fe5b015414156120615761206082612065565b5b5050565b6000600960009054906101000a900473ffffffffffffffffffffffffffffffffffffffff1673ffffffffffffffffffffffffffffffffffffffff16636352211e836040518263ffffffff167c0100000000000000000000000000000000000000000000000000000000028152600401808260ff16815260200191505060206040518083038186803b1580156120f957600080fd5b505afa15801561210d573d6000803e3d6000fd5b505050506040513d602081101561212357600080fd5b810190808051906020019092919050505090506121438282306000611c10565b6000603d8360ff1660098110151561215757fe5b602091828204019190066101000a81548160ff0219169083600181111561217a57fe5b0217905550600060138360ff1660098110151561219357fe5b01819055508073ffffffffffffffffffffffffffffffffffffffff167f6d6bbefef62d4cb6d0e3a4dd306a71d3632319b1e03659513df86b247dd657fe60405160405180910390a2505056fea165627a7a723058208f44ffcd033ad019eaf95bda241f20f813ccd833471a5e0f5e4f63b3037992f30029",
  "source": "pragma solidity ^0.5.0;\nimport \"./interfaces/IERC721Full.sol\";\nimport \"./utils/SafeMath.sol\";\n\ncontract VitalikSteward {\n    \n    /*\n    This smart contract collects patronage from current owner through a Harberger tax model and \n    takes stewardship of the asset token if the patron can't pay anymore.\n\n    Harberger Tax (COST): \n    - Asset is always on sale.\n    - You have to have a price set.\n    - Tax (Patronage) is paid to maintain ownership.\n    - Steward maints control over ERC721.\n    */\n    using SafeMath for uint256;\n\n    uint8 constant numberOfTokens = 9;\n    \n    uint256[numberOfTokens] public price; //in wei\n    IERC721Full public assetToken; // ERC721 NFT.\n    \n    uint256[numberOfTokens] public totalCollected; // all patronage ever collected\n    uint256[numberOfTokens] public currentCollected; // amount currently collected for patron  \n    uint256[numberOfTokens] public timeLastCollected; // \n    uint256[numberOfTokens] public deposit;\n\n    address payable public organization; // non-profit organization\n    uint256 public organizationFund;\n    \n    mapping(uint8 => mapping (address => bool)) public patrons;\n    mapping(uint8 => mapping (address => uint256)) public timeHeld;\n\n    uint256[numberOfTokens] public timeAcquired;\n    \n    // 30% patronage\n    uint256 patronageNumerator =  12000000000000;\n    uint256 patronageDenominator = 1000000000000;\n\n    enum StewardState { Foreclosed, Owned }\n    StewardState[numberOfTokens] public state;\n\n    constructor(address payable _organization, address _assetToken) public {\n        assetToken = IERC721Full(_assetToken);\n        assetToken.setup(numberOfTokens, \"FIX-ME\");\n        organization = _organization;\n        for (uint8 i = 0; i < numberOfTokens; ++i){\n          state[i] = StewardState.Foreclosed;\n        }\n    } \n\n    event LogBuy(address indexed owner, uint256 indexed price);\n    event LogPriceChange(uint256 indexed newPrice);\n    event LogForeclosure(address indexed prevOwner);\n    event LogCollection(uint256 indexed collected);\n    \n    modifier onlyPatron(uint8 tokenIndex) {\n        require(msg.sender == assetToken.ownerOf(tokenIndex), \"Not patron\");\n        _;\n    }\n\n    modifier onlyReceivingOrganization() {\n        require(msg.sender == organization, \"Not organization\");\n        _;\n    }\n\n    modifier collectPatronage(uint8 tokenIndex) {\n       _collectPatronage(tokenIndex);\n       _;\n    }\n\n    function changeReceivingOrganization(address payable _newReceivingOrganization) public onlyReceivingOrganization {\n        organization = _newReceivingOrganization;\n    }\n\n    /* public view functions */\n    function patronageOwed(uint8 tokenIndex) public view returns (uint256 patronageDue) {\n        return price[tokenIndex].mul(now.sub(timeLastCollected[tokenIndex])).mul(patronageNumerator)\n            .div(patronageDenominator).div(365 days);\n    }\n\n    function patronageOwedWithTimestamp(uint8 tokenIndex) public view returns (uint256 patronageDue, uint256 timestamp) {\n        return (patronageOwed(tokenIndex), now);\n    }\n\n    // TODO: currently patronage isn't shared. We need to think of best way to solve this.\n    function foreclosed(uint8 tokenIndex) public view returns (bool) {\n        // returns whether it is in foreclosed state or not\n        // depending on whether deposit covers patronage due\n        // useful helper function when price should be zero, but contract doesn't reflect it yet.\n        uint256 collection = patronageOwed(tokenIndex);\n        if(collection >= deposit[tokenIndex]) {\n            return true;\n        } else {\n            return false;\n        }\n    }\n\n    // same function as above, basically\n    function depositAbleToWithdraw(uint8 tokenIndex) public view returns (uint256) {\n        uint256 collection = patronageOwed(tokenIndex);\n        if(collection >= deposit[tokenIndex]) {\n            return 0;\n        } else {\n            return deposit[tokenIndex].sub(collection);\n        }\n    }\n\n    /*\n    now + deposit/patronage per second \n    now + depositAbleToWithdraw/(price*nume/denom/365).\n    */\n    function foreclosureTime(uint8 tokenIndex) public view returns (uint256) {\n        // patronage per second\n        uint256 pps = price[tokenIndex].mul(patronageNumerator).div(patronageDenominator).div(365 days);\n        return now + depositAbleToWithdraw(tokenIndex).div(pps); // zero division if price is zero.\n    }\n\n    /* actions */\n    function _collectPatronage(uint8 tokenIndex) public {\n        // determine patronage to pay\n        if (state[tokenIndex] == StewardState.Owned) {\n            uint256 collection = patronageOwed(tokenIndex);\n\n            // should foreclose and stake stewardship\n            if (collection >= deposit[tokenIndex]) {\n                // up to when was it actually paid for?\n                timeLastCollected[tokenIndex] = timeLastCollected[tokenIndex].add(((now.sub(timeLastCollected[tokenIndex])).mul(deposit[tokenIndex]).div(collection)));\n                collection = deposit[tokenIndex]; // take what's left.\n\n                _foreclose(tokenIndex);\n            } else  {\n                // just a normal collection\n                timeLastCollected[tokenIndex] = now;\n                currentCollected[tokenIndex] = currentCollected[tokenIndex].add(collection);\n            }\n\n            deposit[tokenIndex] = deposit[tokenIndex].sub(collection);\n            totalCollected[tokenIndex] = totalCollected[tokenIndex].add(collection);\n            organizationFund = organizationFund.add(collection);\n            emit LogCollection(collection);\n        }\n    }\n\n    // note: anyone can deposit\n    function depositWei(uint8 tokenIndex) public payable collectPatronage(tokenIndex) {\n        require(state[tokenIndex] != StewardState.Foreclosed, \"Foreclosed\");\n        deposit[tokenIndex] = deposit[tokenIndex].add(msg.value);\n    }\n\n    function buy(uint8 tokenIndex, uint256 _newPrice) public payable collectPatronage(tokenIndex) {\n        require(_newPrice > 0, \"Price is zero\");\n        require(msg.value > price[tokenIndex], \"Not enough\"); // >, coz need to have at least something for deposit\n        address currentOwner = assetToken.ownerOf(tokenIndex);\n\n        if (state[tokenIndex] == StewardState.Owned) {\n            uint256 totalToPayBack = price[tokenIndex];\n            if(deposit[tokenIndex] > 0) {\n                totalToPayBack = totalToPayBack.add(deposit[tokenIndex]);\n            }\n\n            // pay previous owner their price + deposit back.\n            address payable payableCurrentOwner = address(uint160(currentOwner));\n            payableCurrentOwner.transfer(totalToPayBack);\n        } else if(state[tokenIndex] == StewardState.Foreclosed) {\n            state[tokenIndex] = StewardState.Owned;\n            timeLastCollected[tokenIndex] = now;\n        }\n        \n        deposit[tokenIndex] = msg.value.sub(price[tokenIndex]);\n            transferAssetTokenTo(tokenIndex, currentOwner, msg.sender, _newPrice);\n        emit LogBuy(msg.sender, _newPrice);\n    }\n\n    function changePrice(uint8 tokenIndex, uint256 _newPrice) public onlyPatron(tokenIndex) collectPatronage(tokenIndex) {\n        require(state[tokenIndex] != StewardState.Foreclosed, \"Foreclosed\");\n        require(_newPrice != 0, \"Incorrect Price\");\n        \n        price[tokenIndex] = _newPrice;\n        emit LogPriceChange(price[tokenIndex]);\n    }\n    \n    function withdrawDeposit(uint8 tokenIndex, uint256 _wei) public onlyPatron(tokenIndex) collectPatronage(tokenIndex) returns (uint256) {\n        _withdrawDeposit(tokenIndex, _wei);\n    }\n\n    function withdrawOrganizationFunds() public {\n        require(msg.sender == organization, \"Not organization\");\n        organization.transfer(organizationFund);\n        organizationFund = 0;\n    }\n\n    function exit(uint8 tokenIndex) public onlyPatron(tokenIndex) collectPatronage(tokenIndex) {\n        _withdrawDeposit(tokenIndex, deposit[tokenIndex]);\n    }\n\n    /* internal */\n\n    function _withdrawDeposit(uint8 tokenIndex, uint256 _wei) internal {\n        // note: can withdraw whole deposit, which puts it in immediate to be foreclosed state.\n        require(deposit[tokenIndex] >= _wei, 'Withdrawing too much');\n\n        deposit[tokenIndex] = deposit[tokenIndex].sub(_wei);\n        msg.sender.transfer(_wei); // msg.sender == patron\n\n        if(deposit[tokenIndex] == 0) {\n            _foreclose(tokenIndex);\n        }\n    }\n\n    function _foreclose(uint8 tokenIndex) internal {\n        // become steward of assetToken (aka foreclose)\n        address currentOwner = assetToken.ownerOf(tokenIndex);\n        transferAssetTokenTo(tokenIndex, currentOwner, address(this), 0);\n        state[tokenIndex] = StewardState.Foreclosed;\n        currentCollected[tokenIndex] = 0;\n\n        emit LogForeclosure(currentOwner);\n    }\n\n    function transferAssetTokenTo(uint8 tokenIndex, address _currentOwner, address _newOwner, uint256 _newPrice) internal {\n        // note: it would also tabulate time held in stewardship by smart contract\n        timeHeld[tokenIndex][_currentOwner] = timeHeld[tokenIndex][_currentOwner].add((timeLastCollected[tokenIndex].sub(timeAcquired[tokenIndex])));\n        \n        assetToken.transferFrom(_currentOwner, _newOwner, tokenIndex);\n\n        price[tokenIndex] = _newPrice;\n        timeAcquired[tokenIndex] = now;\n        patrons[tokenIndex][_newOwner] = true;\n    }\n}\n",
  "sourcePath": "/home/denham/Desktop/Blockchain/ETHIndia/contracts/VitalikSteward.sol",
  "compiler": {
    "name": "solc",
    "version": "0.5.0+commit.1d4f565a.Emscripten.clang"
  },
  "schemaVersion": "3.0.6",
  "updatedAt": "2019-08-03T15:55:48.118Z",
  "devdoc": {
    "methods": {}
  },
  "userdoc": {
    "methods": {}
  }
}