{
  "contractName": "VitalikSteward",
  "abi": [
    {
      "constant": true,
      "inputs": [
        {
          "name": "",
          "type": "uint8"
        },
        {
          "name": "",
          "type": "address"
        }
      ],
      "name": "patrons",
      "outputs": [
        {
          "name": "",
          "type": "bool"
        }
      ],
      "payable": false,
      "stateMutability": "view",
      "type": "function",
      "signature": "0x025306c2"
    },
    {
      "constant": true,
      "inputs": [
        {
          "name": "",
          "type": "uint8"
        },
        {
          "name": "",
          "type": "address"
        }
      ],
      "name": "timeHeld",
      "outputs": [
        {
          "name": "",
          "type": "uint256"
        }
      ],
      "payable": false,
      "stateMutability": "view",
      "type": "function",
      "signature": "0x02702d33"
    },
    {
      "constant": true,
      "inputs": [],
      "name": "assetToken",
      "outputs": [
        {
          "name": "",
          "type": "address"
        }
      ],
      "payable": false,
      "stateMutability": "view",
      "type": "function",
      "signature": "0x1083f761"
    },
    {
      "constant": true,
      "inputs": [
        {
          "name": "",
          "type": "uint256"
        }
      ],
      "name": "currentCollected",
      "outputs": [
        {
          "name": "",
          "type": "uint256"
        }
      ],
      "payable": false,
      "stateMutability": "view",
      "type": "function",
      "signature": "0x1b252781"
    },
    {
      "constant": true,
      "inputs": [],
      "name": "organization",
      "outputs": [
        {
          "name": "",
          "type": "address"
        }
      ],
      "payable": false,
      "stateMutability": "view",
      "type": "function",
      "signature": "0x23bd4d7a"
    },
    {
      "constant": true,
      "inputs": [
        {
          "name": "",
          "type": "uint256"
        }
      ],
      "name": "price",
      "outputs": [
        {
          "name": "",
          "type": "uint256"
        }
      ],
      "payable": false,
      "stateMutability": "view",
      "type": "function",
      "signature": "0x26a49e37"
    },
    {
      "constant": true,
      "inputs": [
        {
          "name": "",
          "type": "uint256"
        }
      ],
      "name": "state",
      "outputs": [
        {
          "name": "",
          "type": "uint8"
        }
      ],
      "payable": false,
      "stateMutability": "view",
      "type": "function",
      "signature": "0x3e4f49e6"
    },
    {
      "constant": true,
      "inputs": [
        {
          "name": "",
          "type": "uint256"
        }
      ],
      "name": "hashes",
      "outputs": [
        {
          "name": "",
          "type": "string"
        }
      ],
      "payable": false,
      "stateMutability": "view",
      "type": "function",
      "signature": "0x501895ae"
    },
    {
      "constant": true,
      "inputs": [
        {
          "name": "",
          "type": "uint256"
        }
      ],
      "name": "timeAcquired",
      "outputs": [
        {
          "name": "",
          "type": "uint256"
        }
      ],
      "payable": false,
      "stateMutability": "view",
      "type": "function",
      "signature": "0x5b2ace64"
    },
    {
      "constant": true,
      "inputs": [
        {
          "name": "",
          "type": "uint256"
        }
      ],
      "name": "timeLastCollected",
      "outputs": [
        {
          "name": "",
          "type": "uint256"
        }
      ],
      "payable": false,
      "stateMutability": "view",
      "type": "function",
      "signature": "0x8cb68899"
    },
    {
      "constant": true,
      "inputs": [],
      "name": "organizationFund",
      "outputs": [
        {
          "name": "",
          "type": "uint256"
        }
      ],
      "payable": false,
      "stateMutability": "view",
      "type": "function",
      "signature": "0xb2d4dded"
    },
    {
      "constant": true,
      "inputs": [
        {
          "name": "",
          "type": "uint256"
        }
      ],
      "name": "deposit",
      "outputs": [
        {
          "name": "",
          "type": "uint256"
        }
      ],
      "payable": false,
      "stateMutability": "view",
      "type": "function",
      "signature": "0xb6b55f25"
    },
    {
      "constant": true,
      "inputs": [
        {
          "name": "",
          "type": "uint256"
        }
      ],
      "name": "totalCollected",
      "outputs": [
        {
          "name": "",
          "type": "uint256"
        }
      ],
      "payable": false,
      "stateMutability": "view",
      "type": "function",
      "signature": "0xc3310052"
    },
    {
      "inputs": [
        {
          "name": "_organization",
          "type": "address"
        },
        {
          "name": "_assetToken",
          "type": "address"
        }
      ],
      "payable": false,
      "stateMutability": "nonpayable",
      "type": "constructor",
      "signature": "constructor"
    },
    {
      "anonymous": false,
      "inputs": [
        {
          "indexed": true,
          "name": "owner",
          "type": "address"
        },
        {
          "indexed": true,
          "name": "price",
          "type": "uint256"
        }
      ],
      "name": "LogBuy",
      "type": "event",
      "signature": "0x4f79409f494e81c38036d80aa8a6507c2cb08d90bfb2fead5519447646b3497e"
    },
    {
      "anonymous": false,
      "inputs": [
        {
          "indexed": true,
          "name": "newPrice",
          "type": "uint256"
        }
      ],
      "name": "LogPriceChange",
      "type": "event",
      "signature": "0x854d6511a28585103049c7770618450f7c9aeb580c69db2913d63869663f4751"
    },
    {
      "anonymous": false,
      "inputs": [
        {
          "indexed": true,
          "name": "newImage",
          "type": "string"
        }
      ],
      "name": "LogImageChange",
      "type": "event",
      "signature": "0xb35914457337eefea19e9e8e1e6d321f52080ba33b0410fbdc5c40187c37103c"
    },
    {
      "anonymous": false,
      "inputs": [
        {
          "indexed": true,
          "name": "prevOwner",
          "type": "address"
        }
      ],
      "name": "LogForeclosure",
      "type": "event",
      "signature": "0x6d6bbefef62d4cb6d0e3a4dd306a71d3632319b1e03659513df86b247dd657fe"
    },
    {
      "anonymous": false,
      "inputs": [
        {
          "indexed": true,
          "name": "collected",
          "type": "uint256"
        }
      ],
      "name": "LogCollection",
      "type": "event",
      "signature": "0x54acb82a9e70d7c289b149758d23167c915428ae854a7aa4abe5bf2f4ef29f36"
    },
    {
      "constant": false,
      "inputs": [
        {
          "name": "_newReceivingOrganization",
          "type": "address"
        }
      ],
      "name": "changeReceivingOrganization",
      "outputs": [],
      "payable": false,
      "stateMutability": "nonpayable",
      "type": "function",
      "signature": "0x4a8bd215"
    },
    {
      "constant": true,
      "inputs": [
        {
          "name": "tokenIndex",
          "type": "uint8"
        }
      ],
      "name": "patronageOwed",
      "outputs": [
        {
          "name": "patronageDue",
          "type": "uint256"
        }
      ],
      "payable": false,
      "stateMutability": "view",
      "type": "function",
      "signature": "0xc03a252b"
    },
    {
      "constant": true,
      "inputs": [
        {
          "name": "tokenIndex",
          "type": "uint8"
        }
      ],
      "name": "patronageOwedWithTimestamp",
      "outputs": [
        {
          "name": "patronageDue",
          "type": "uint256"
        },
        {
          "name": "timestamp",
          "type": "uint256"
        }
      ],
      "payable": false,
      "stateMutability": "view",
      "type": "function",
      "signature": "0x1b638077"
    },
    {
      "constant": true,
      "inputs": [
        {
          "name": "tokenIndex",
          "type": "uint8"
        }
      ],
      "name": "foreclosed",
      "outputs": [
        {
          "name": "",
          "type": "bool"
        }
      ],
      "payable": false,
      "stateMutability": "view",
      "type": "function",
      "signature": "0x43b9c06b"
    },
    {
      "constant": true,
      "inputs": [
        {
          "name": "tokenIndex",
          "type": "uint8"
        }
      ],
      "name": "depositAbleToWithdraw",
      "outputs": [
        {
          "name": "",
          "type": "uint256"
        }
      ],
      "payable": false,
      "stateMutability": "view",
      "type": "function",
      "signature": "0x9de1535b"
    },
    {
      "constant": true,
      "inputs": [
        {
          "name": "tokenIndex",
          "type": "uint8"
        }
      ],
      "name": "foreclosureTime",
      "outputs": [
        {
          "name": "",
          "type": "uint256"
        }
      ],
      "payable": false,
      "stateMutability": "view",
      "type": "function",
      "signature": "0x71328f87"
    },
    {
      "constant": false,
      "inputs": [
        {
          "name": "tokenIndex",
          "type": "uint8"
        }
      ],
      "name": "_collectPatronage",
      "outputs": [],
      "payable": false,
      "stateMutability": "nonpayable",
      "type": "function",
      "signature": "0xa1fb2b66"
    },
    {
      "constant": false,
      "inputs": [
        {
          "name": "tokenIndex",
          "type": "uint8"
        }
      ],
      "name": "depositWei",
      "outputs": [],
      "payable": true,
      "stateMutability": "payable",
      "type": "function",
      "signature": "0x5dade65d"
    },
    {
      "constant": false,
      "inputs": [
        {
          "name": "tokenIndex",
          "type": "uint8"
        },
        {
          "name": "_newPrice",
          "type": "uint256"
        }
      ],
      "name": "buy",
      "outputs": [],
      "payable": true,
      "stateMutability": "payable",
      "type": "function",
      "signature": "0x62f791c0"
    },
    {
      "constant": false,
      "inputs": [
        {
          "name": "tokenIndex",
          "type": "uint8"
        },
        {
          "name": "_newPrice",
          "type": "uint256"
        }
      ],
      "name": "changePrice",
      "outputs": [],
      "payable": false,
      "stateMutability": "nonpayable",
      "type": "function",
      "signature": "0x91778b9c"
    },
    {
      "constant": false,
      "inputs": [
        {
          "name": "tokenIndex",
          "type": "uint8"
        },
        {
          "name": "_newHash",
          "type": "string"
        }
      ],
      "name": "changeImage",
      "outputs": [],
      "payable": false,
      "stateMutability": "nonpayable",
      "type": "function",
      "signature": "0xbfc91cf5"
    },
    {
      "constant": false,
      "inputs": [
        {
          "name": "tokenIndex",
          "type": "uint8"
        },
        {
          "name": "_wei",
          "type": "uint256"
        }
      ],
      "name": "withdrawDeposit",
      "outputs": [
        {
          "name": "",
          "type": "uint256"
        }
      ],
      "payable": false,
      "stateMutability": "nonpayable",
      "type": "function",
      "signature": "0x9153b268"
    },
    {
      "constant": false,
      "inputs": [],
      "name": "withdrawOrganizationFunds",
      "outputs": [],
      "payable": false,
      "stateMutability": "nonpayable",
      "type": "function",
      "signature": "0x7f1dd4cf"
    },
    {
      "constant": false,
      "inputs": [
        {
          "name": "tokenIndex",
          "type": "uint8"
        }
      ],
      "name": "exit",
      "outputs": [],
      "payable": false,
      "stateMutability": "nonpayable",
      "type": "function",
      "signature": "0xbac6b5d3"
    }
  ],
  "bytecode": "0x6080604052650ae9f7bcc00060445564e8d4a510006045553480156200002457600080fd5b5060405160408062002c14833981018060405260408110156200004657600080fd5b81019080805190602001909291908051906020019092919050505080600960006101000a81548173ffffffffffffffffffffffffffffffffffffffff021916908373ffffffffffffffffffffffffffffffffffffffff160217905550600960009054906101000a900473ffffffffffffffffffffffffffffffffffffffff1673ffffffffffffffffffffffffffffffffffffffff166321078ec860096040518263ffffffff167c0100000000000000000000000000000000000000000000000000000000028152600401808260ff1660ff16815260200180602001828103825260068152602001807f4649582d4d45000000000000000000000000000000000000000000000000000081525060200192505050600060405180830381600087803b1580156200017457600080fd5b505af115801562000189573d6000803e3d6000fd5b5050505081603760006101000a81548173ffffffffffffffffffffffffffffffffffffffff021916908373ffffffffffffffffffffffffffffffffffffffff16021790555060008090505b600960ff168160ff1610156200022e57600060468260ff16600981101515620001f957fe5b602091828204019190066101000a81548160ff021916908360018111156200021d57fe5b0217905550806001019050620001d4565b5060008090505b600960ff168160ff161015620002d857606060405190810160405280602e81526020017f516d6643487a57794672776d56774461716a32385667556b484a34615a41354481526020017f4e4266634a52785531474c476571000000000000000000000000000000000000815250600a8260ff16600981101515620002b557fe5b019080519060200190620002cb929190620002e1565b5080600101905062000235565b50505062000390565b828054600181600116156101000203166002900490600052602060002090601f016020900481019282601f106200032457805160ff191683800117855562000355565b8280016001018555821562000355579182015b828111156200035457825182559160200191906001019062000337565b5b50905062000364919062000368565b5090565b6200038d91905b80821115620003895760008160009055506001016200036f565b5090565b90565b61287480620003a06000396000f3fe60806040526004361061015f576000357c0100000000000000000000000000000000000000000000000000000000900463ffffffff168063025306c21461016457806302702d33146101da5780631083f7611461024c5780631b252781146102a35780631b638077146102f257806323bd4d7a1461034b57806326a49e37146103a25780633e4f49e6146103f157806343b9c06b1461044e5780634a8bd215146104a4578063501895ae146104f55780635b2ace64146105a95780635dade65d146105f857806362f791c01461062957806371328f87146106645780637f1dd4cf146106b65780638cb68899146106cd5780639153b2681461071c57806391778b9c146107785780639de1535b146107c0578063a1fb2b6614610812578063b2d4dded14610850578063b6b55f251461087b578063bac6b5d3146108ca578063bfc91cf514610908578063c03a252b146109dd578063c331005214610a2f575b600080fd5b34801561017057600080fd5b506101c06004803603604081101561018757600080fd5b81019080803560ff169060200190929190803573ffffffffffffffffffffffffffffffffffffffff169060200190929190505050610a7e565b604051808215151515815260200191505060405180910390f35b3480156101e657600080fd5b50610236600480360360408110156101fd57600080fd5b81019080803560ff169060200190929190803573ffffffffffffffffffffffffffffffffffffffff169060200190929190505050610aad565b6040518082815260200191505060405180910390f35b34801561025857600080fd5b50610261610ad2565b604051808273ffffffffffffffffffffffffffffffffffffffff1673ffffffffffffffffffffffffffffffffffffffff16815260200191505060405180910390f35b3480156102af57600080fd5b506102dc600480360360208110156102c657600080fd5b8101908080359060200190929190505050610af8565b6040518082815260200191505060405180910390f35b3480156102fe57600080fd5b5061032e6004803603602081101561031557600080fd5b81019080803560ff169060200190929190505050610b12565b604051808381526020018281526020019250505060405180910390f35b34801561035757600080fd5b50610360610b28565b604051808273ffffffffffffffffffffffffffffffffffffffff1673ffffffffffffffffffffffffffffffffffffffff16815260200191505060405180910390f35b3480156103ae57600080fd5b506103db600480360360208110156103c557600080fd5b8101908080359060200190929190505050610b4e565b6040518082815260200191505060405180910390f35b3480156103fd57600080fd5b5061042a6004803603602081101561041457600080fd5b8101908080359060200190929190505050610b68565b6040518082600181111561043a57fe5b60ff16815260200191505060405180910390f35b34801561045a57600080fd5b5061048a6004803603602081101561047157600080fd5b81019080803560ff169060200190929190505050610b91565b604051808215151515815260200191505060405180910390f35b3480156104b057600080fd5b506104f3600480360360208110156104c757600080fd5b81019080803573ffffffffffffffffffffffffffffffffffffffff169060200190929190505050610bd0565b005b34801561050157600080fd5b5061052e6004803603602081101561051857600080fd5b8101908080359060200190929190505050610cd9565b6040518080602001828103825283818151815260200191508051906020019080838360005b8381101561056e578082015181840152602081019050610553565b50505050905090810190601f16801561059b5780820380516001836020036101000a031916815260200191505b509250505060405180910390f35b3480156105b557600080fd5b506105e2600480360360208110156105cc57600080fd5b8101908080359060200190929190505050610d8b565b6040518082815260200191505060405180910390f35b6106276004803603602081101561060e57600080fd5b81019080803560ff169060200190929190505050610da5565b005b6106626004803603604081101561063f57600080fd5b81019080803560ff16906020019092919080359060200190929190505050610ea6565b005b34801561067057600080fd5b506106a06004803603602081101561068757600080fd5b81019080803560ff1690602001909291905050506112a6565b6040518082815260200191505060405180910390f35b3480156106c257600080fd5b506106cb611322565b005b3480156106d957600080fd5b50610706600480360360208110156106f057600080fd5b810190808035906020019092919050505061145c565b6040518082815260200191505060405180910390f35b34801561072857600080fd5b506107626004803603604081101561073f57600080fd5b81019080803560ff16906020019092919080359060200190929190505050611476565b6040518082815260200191505060405180910390f35b34801561078457600080fd5b506107be6004803603604081101561079b57600080fd5b81019080803560ff16906020019092919080359060200190929190505050611604565b005b3480156107cc57600080fd5b506107fc600480360360208110156107e357600080fd5b81019080803560ff16906020019092919050505061190b565b6040518082815260200191505060405180910390f35b34801561081e57600080fd5b5061084e6004803603602081101561083557600080fd5b81019080803560ff16906020019092919050505061196e565b005b34801561085c57600080fd5b50610865611bb6565b6040518082815260200191505060405180910390f35b34801561088757600080fd5b506108b46004803603602081101561089e57600080fd5b8101908080359060200190929190505050611bbc565b6040518082815260200191505060405180910390f35b3480156108d657600080fd5b50610906600480360360208110156108ed57600080fd5b81019080803560ff169060200190929190505050611bd6565b005b34801561091457600080fd5b506109db6004803603604081101561092b57600080fd5b81019080803560ff1690602001909291908035906020019064010000000081111561095557600080fd5b82018360208201111561096757600080fd5b8035906020019184600183028401116401000000008311171561098957600080fd5b91908080601f016020809104026020016040519081016040528093929190818152602001838380828437600081840152601f19601f820116905080830192505050505050509192919290505050611d72565b005b3480156109e957600080fd5b50610a1960048036036020811015610a0057600080fd5b81019080803560ff1690602001909291905050506120e5565b6040518082815260200191505060405180910390f35b348015610a3b57600080fd5b50610a6860048036036020811015610a5257600080fd5b8101908080359060200190929190505050612177565b6040518082815260200191505060405180910390f35b60396020528160005260406000206020528060005260406000206000915091509054906101000a900460ff1681565b603a602052816000526040600020602052806000526040600020600091509150505481565b600960009054906101000a900473ffffffffffffffffffffffffffffffffffffffff1681565b601c81600981101515610b0757fe5b016000915090505481565b600080610b1e836120e5565b4291509150915091565b603760009054906101000a900473ffffffffffffffffffffffffffffffffffffffff1681565b600081600981101515610b5d57fe5b016000915090505481565b604681600981101515610b7757fe5b60209182820401919006915054906101000a900460ff1681565b600080610b9d836120e5565b9050602e8360ff16600981101515610bb157fe5b015481101515610bc5576001915050610bcb565b60009150505b919050565b603760009054906101000a900473ffffffffffffffffffffffffffffffffffffffff1673ffffffffffffffffffffffffffffffffffffffff163373ffffffffffffffffffffffffffffffffffffffff16141515610c95576040517f08c379a00000000000000000000000000000000000000000000000000000000081526004018080602001828103825260108152602001807f4e6f74206f7267616e697a6174696f6e0000000000000000000000000000000081525060200191505060405180910390fd5b80603760006101000a81548173ffffffffffffffffffffffffffffffffffffffff021916908373ffffffffffffffffffffffffffffffffffffffff16021790555050565b600a81600981101515610ce857fe5b016000915090508054600181600116156101000203166002900480601f016020809104026020016040519081016040528092919081815260200182805460018160011615610100020316600290048015610d835780601f10610d5857610100808354040283529160200191610d83565b820191906000526020600020905b815481529060010190602001808311610d6657829003601f168201915b505050505081565b603b81600981101515610d9a57fe5b016000915090505481565b80610daf8161196e565b60006001811115610dbc57fe5b60468360ff16600981101515610dce57fe5b602091828204019190069054906101000a900460ff166001811115610def57fe5b14151515610e65576040517f08c379a000000000000000000000000000000000000000000000000000000000815260040180806020018281038252600a8152602001807f466f7265636c6f7365640000000000000000000000000000000000000000000081525060200191505060405180910390fd5b610e8b34602e8460ff16600981101515610e7b57fe5b015461219190919063ffffffff16565b602e8360ff16600981101515610e9d57fe5b01819055505050565b81610eb08161196e565b600082111515610f28576040517f08c379a000000000000000000000000000000000000000000000000000000000815260040180806020018281038252600d8152602001807f5072696365206973207a65726f0000000000000000000000000000000000000081525060200191505060405180910390fd5b60008360ff16600981101515610f3a57fe5b015434111515610fb2576040517f08c379a000000000000000000000000000000000000000000000000000000000815260040180806020018281038252600a8152602001807f4e6f7420656e6f7567680000000000000000000000000000000000000000000081525060200191505060405180910390fd5b6000600960009054906101000a900473ffffffffffffffffffffffffffffffffffffffff1673ffffffffffffffffffffffffffffffffffffffff16636352211e856040518263ffffffff167c0100000000000000000000000000000000000000000000000000000000028152600401808260ff16815260200191505060206040518083038186803b15801561104657600080fd5b505afa15801561105a573d6000803e3d6000fd5b505050506040513d602081101561107057600080fd5b8101908080519060200190929190505050905060018081111561108f57fe5b60468560ff166009811015156110a157fe5b602091828204019190069054906101000a900460ff1660018111156110c257fe5b1415611177576000808560ff166009811015156110db57fe5b015490506000602e8660ff166009811015156110f357fe5b0154111561112457611121602e8660ff1660098110151561111057fe5b01548261219190919063ffffffff16565b90505b60008290508073ffffffffffffffffffffffffffffffffffffffff166108fc839081150290604051600060405180830381858888f1935050505015801561116f573d6000803e3d6000fd5b505050611213565b6000600181111561118457fe5b60468560ff1660098110151561119657fe5b602091828204019190069054906101000a900460ff1660018111156111b757fe5b141561121257600160468560ff166009811015156111d157fe5b602091828204019190066101000a81548160ff021916908360018111156111f457fe5b02179055504260258560ff1660098110151561120c57fe5b01819055505b5b61123960008560ff1660098110151561122857fe5b0154346121b290919063ffffffff16565b602e8560ff1660098110151561124b57fe5b018190555061125c848233866121d4565b823373ffffffffffffffffffffffffffffffffffffffff167f4f79409f494e81c38036d80aa8a6507c2cb08d90bfb2fead5519447646b3497e60405160405180910390a350505050565b6000806112fb6301e133806112ed6045546112df60445460008960ff166009811015156112cf57fe5b015461248890919063ffffffff16565b6124c690919063ffffffff16565b6124c690919063ffffffff16565b90506113188161130a8561190b565b6124c690919063ffffffff16565b4201915050919050565b603760009054906101000a900473ffffffffffffffffffffffffffffffffffffffff1673ffffffffffffffffffffffffffffffffffffffff163373ffffffffffffffffffffffffffffffffffffffff161415156113e7576040517f08c379a00000000000000000000000000000000000000000000000000000000081526004018080602001828103825260108152602001807f4e6f74206f7267616e697a6174696f6e0000000000000000000000000000000081525060200191505060405180910390fd5b603760009054906101000a900473ffffffffffffffffffffffffffffffffffffffff1673ffffffffffffffffffffffffffffffffffffffff166108fc6038549081150290604051600060405180830381858888f19350505050158015611451573d6000803e3d6000fd5b506000603881905550565b60258160098110151561146b57fe5b016000915090505481565b600082600960009054906101000a900473ffffffffffffffffffffffffffffffffffffffff1673ffffffffffffffffffffffffffffffffffffffff16636352211e826040518263ffffffff167c0100000000000000000000000000000000000000000000000000000000028152600401808260ff16815260200191505060206040518083038186803b15801561150b57600080fd5b505afa15801561151f573d6000803e3d6000fd5b505050506040513d602081101561153557600080fd5b810190808051906020019092919050505073ffffffffffffffffffffffffffffffffffffffff163373ffffffffffffffffffffffffffffffffffffffff161415156115e8576040517f08c379a000000000000000000000000000000000000000000000000000000000815260040180806020018281038252600a8152602001807f4e6f7420706174726f6e0000000000000000000000000000000000000000000081525060200191505060405180910390fd5b836115f28161196e565b6115fc85856124f0565b505092915050565b81600960009054906101000a900473ffffffffffffffffffffffffffffffffffffffff1673ffffffffffffffffffffffffffffffffffffffff16636352211e826040518263ffffffff167c0100000000000000000000000000000000000000000000000000000000028152600401808260ff16815260200191505060206040518083038186803b15801561169757600080fd5b505afa1580156116ab573d6000803e3d6000fd5b505050506040513d60208110156116c157600080fd5b810190808051906020019092919050505073ffffffffffffffffffffffffffffffffffffffff163373ffffffffffffffffffffffffffffffffffffffff16141515611774576040517f08c379a000000000000000000000000000000000000000000000000000000000815260040180806020018281038252600a8152602001807f4e6f7420706174726f6e0000000000000000000000000000000000000000000081525060200191505060405180910390fd5b8261177e8161196e565b6000600181111561178b57fe5b60468560ff1660098110151561179d57fe5b602091828204019190069054906101000a900460ff1660018111156117be57fe5b14151515611834576040517f08c379a000000000000000000000000000000000000000000000000000000000815260040180806020018281038252600a8152602001807f466f7265636c6f7365640000000000000000000000000000000000000000000081525060200191505060405180910390fd5b600083141515156118ad576040517f08c379a000000000000000000000000000000000000000000000000000000000815260040180806020018281038252600f8152602001807f496e636f7272656374205072696365000000000000000000000000000000000081525060200191505060405180910390fd5b8260008560ff166009811015156118c057fe5b018190555060008460ff166009811015156118d757fe5b01547f854d6511a28585103049c7770618450f7c9aeb580c69db2913d63869663f475160405160405180910390a250505050565b600080611917836120e5565b9050602e8360ff1660098110151561192b57fe5b01548110151561193f576000915050611969565b61196581602e8560ff1660098110151561195557fe5b01546121b290919063ffffffff16565b9150505b919050565b60018081111561197a57fe5b60468260ff1660098110151561198c57fe5b602091828204019190069054906101000a900460ff1660018111156119ad57fe5b1415611bb35760006119be826120e5565b9050602e8260ff166009811015156119d257fe5b015481101515611a9957611a5e611a3c82611a2e602e8660ff166009811015156119f857fe5b0154611a2060258860ff16600981101515611a0f57fe5b0154426121b290919063ffffffff16565b61248890919063ffffffff16565b6124c690919063ffffffff16565b60258460ff16600981101515611a4e57fe5b015461219190919063ffffffff16565b60258360ff16600981101515611a7057fe5b0181905550602e8260ff16600981101515611a8757fe5b01549050611a9482612629565b611aef565b4260258360ff16600981101515611aac57fe5b0181905550611ad781601c8460ff16600981101515611ac757fe5b015461219190919063ffffffff16565b601c8360ff16600981101515611ae957fe5b01819055505b611b1581602e8460ff16600981101515611b0557fe5b01546121b290919063ffffffff16565b602e8360ff16600981101515611b2757fe5b0181905550611b528160138460ff16600981101515611b4257fe5b015461219190919063ffffffff16565b60138360ff16600981101515611b6457fe5b0181905550611b7e8160385461219190919063ffffffff16565b603881905550807f54acb82a9e70d7c289b149758d23167c915428ae854a7aa4abe5bf2f4ef29f3660405160405180910390a2505b50565b60385481565b602e81600981101515611bcb57fe5b016000915090505481565b80600960009054906101000a900473ffffffffffffffffffffffffffffffffffffffff1673ffffffffffffffffffffffffffffffffffffffff16636352211e826040518263ffffffff167c0100000000000000000000000000000000000000000000000000000000028152600401808260ff16815260200191505060206040518083038186803b158015611c6957600080fd5b505afa158015611c7d573d6000803e3d6000fd5b505050506040513d6020811015611c9357600080fd5b810190808051906020019092919050505073ffffffffffffffffffffffffffffffffffffffff163373ffffffffffffffffffffffffffffffffffffffff16141515611d46576040517f08c379a000000000000000000000000000000000000000000000000000000000815260040180806020018281038252600a8152602001807f4e6f7420706174726f6e0000000000000000000000000000000000000000000081525060200191505060405180910390fd5b81611d508161196e565b611d6d83602e8560ff16600981101515611d6657fe5b01546124f0565b505050565b81600960009054906101000a900473ffffffffffffffffffffffffffffffffffffffff1673ffffffffffffffffffffffffffffffffffffffff16636352211e826040518263ffffffff167c0100000000000000000000000000000000000000000000000000000000028152600401808260ff16815260200191505060206040518083038186803b158015611e0557600080fd5b505afa158015611e19573d6000803e3d6000fd5b505050506040513d6020811015611e2f57600080fd5b810190808051906020019092919050505073ffffffffffffffffffffffffffffffffffffffff163373ffffffffffffffffffffffffffffffffffffffff16141515611ee2576040517f08c379a000000000000000000000000000000000000000000000000000000000815260040180806020018281038252600a8152602001807f4e6f7420706174726f6e0000000000000000000000000000000000000000000081525060200191505060405180910390fd5b60006001811115611eef57fe5b60468460ff16600981101515611f0157fe5b602091828204019190069054906101000a900460ff166001811115611f2257fe5b14151515611f98576040517f08c379a000000000000000000000000000000000000000000000000000000000815260040180806020018281038252600a8152602001807f466f7265636c6f7365640000000000000000000000000000000000000000000081525060200191505060405180910390fd5b602e8251141515612011576040517f08c379a000000000000000000000000000000000000000000000000000000000815260040180806020018281038252600f8152602001807f48617368206e6f742076616c696420000000000000000000000000000000000081525060200191505060405180910390fd5b81600a8460ff1660098110151561202457fe5b0190805190602001906120389291906127a3565b50600a8360ff1660098110151561204b57fe5b0160405180828054600181600116156101000203166002900480156120a75780601f106120855761010080835404028352918201916120a7565b820191906000526020600020905b815481529060010190602001808311612093575b505091505060405180910390207fb35914457337eefea19e9e8e1e6d321f52080ba33b0410fbdc5c40187c37103c60405160405180910390a2505050565b60006121706301e1338061216260455461215460445461214661212460258a60ff1660098110151561211357fe5b0154426121b290919063ffffffff16565b60008a60ff1660098110151561213657fe5b015461248890919063ffffffff16565b61248890919063ffffffff16565b6124c690919063ffffffff16565b6124c690919063ffffffff16565b9050919050565b60138160098110151561218657fe5b016000915090505481565b60008082840190508381101515156121a857600080fd5b8091505092915050565b60008282111515156121c357600080fd5b600082840390508091505092915050565b612275612210603b8660ff166009811015156121ec57fe5b015460258760ff1660098110151561220057fe5b01546121b290919063ffffffff16565b603a60008760ff1660ff16815260200190815260200160002060008673ffffffffffffffffffffffffffffffffffffffff1673ffffffffffffffffffffffffffffffffffffffff1681526020019081526020016000205461219190919063ffffffff16565b603a60008660ff1660ff16815260200190815260200160002060008573ffffffffffffffffffffffffffffffffffffffff1673ffffffffffffffffffffffffffffffffffffffff16815260200190815260200160002081905550600960009054906101000a900473ffffffffffffffffffffffffffffffffffffffff1673ffffffffffffffffffffffffffffffffffffffff166323b872dd8484876040518463ffffffff167c0100000000000000000000000000000000000000000000000000000000028152600401808473ffffffffffffffffffffffffffffffffffffffff1673ffffffffffffffffffffffffffffffffffffffff1681526020018373ffffffffffffffffffffffffffffffffffffffff1673ffffffffffffffffffffffffffffffffffffffff1681526020018260ff1681526020019350505050600060405180830381600087803b1580156123cb57600080fd5b505af11580156123df573d6000803e3d6000fd5b505050508060008560ff166009811015156123f657fe5b018190555042603b8560ff1660098110151561240e57fe5b01819055506001603960008660ff1660ff16815260200190815260200160002060008473ffffffffffffffffffffffffffffffffffffffff1673ffffffffffffffffffffffffffffffffffffffff16815260200190815260200160002060006101000a81548160ff02191690831515021790555050505050565b60008083141561249b57600090506124c0565b600082840290508284828115156124ae57fe5b041415156124bb57600080fd5b809150505b92915050565b600080821115156124d657600080fd5b600082848115156124e357fe5b0490508091505092915050565b80602e8360ff1660098110151561250357fe5b01541015151561257b576040517f08c379a00000000000000000000000000000000000000000000000000000000081526004018080602001828103825260148152602001807f5769746864726177696e6720746f6f206d75636800000000000000000000000081525060200191505060405180910390fd5b6125a181602e8460ff1660098110151561259157fe5b01546121b290919063ffffffff16565b602e8360ff166009811015156125b357fe5b01819055503373ffffffffffffffffffffffffffffffffffffffff166108fc829081150290604051600060405180830381858888f193505050501580156125fe573d6000803e3d6000fd5b506000602e8360ff1660098110151561261357fe5b015414156126255761262482612629565b5b5050565b6000600960009054906101000a900473ffffffffffffffffffffffffffffffffffffffff1673ffffffffffffffffffffffffffffffffffffffff16636352211e836040518263ffffffff167c0100000000000000000000000000000000000000000000000000000000028152600401808260ff16815260200191505060206040518083038186803b1580156126bd57600080fd5b505afa1580156126d1573d6000803e3d6000fd5b505050506040513d60208110156126e757600080fd5b8101908080519060200190929190505050905061270782823060006121d4565b600060468360ff1660098110151561271b57fe5b602091828204019190066101000a81548160ff0219169083600181111561273e57fe5b02179055506000601c8360ff1660098110151561275757fe5b01819055508073ffffffffffffffffffffffffffffffffffffffff167f6d6bbefef62d4cb6d0e3a4dd306a71d3632319b1e03659513df86b247dd657fe60405160405180910390a25050565b828054600181600116156101000203166002900490600052602060002090601f016020900481019282601f106127e457805160ff1916838001178555612812565b82800160010185558215612812579182015b828111156128115782518255916020019190600101906127f6565b5b50905061281f9190612823565b5090565b61284591905b80821115612841576000816000905550600101612829565b5090565b9056fea165627a7a723058202c45ce3f909eae32c1fa8e149ba2a6452ba02d36023d159e130734c955909f360029",
  "source": "pragma solidity ^0.5.0;\nimport \"./interfaces/IERC721Full.sol\";\nimport \"./utils/SafeMath.sol\";\n\ncontract VitalikSteward {\n    \n    /*\n    This smart contract collects patronage from current owner through a Harberger tax model and \n    takes stewardship of the asset token if the patron can't pay anymore.\n\n    Harberger Tax (COST): \n    - Asset is always on sale.\n    - You have to have a price set.\n    - Tax (Patronage) is paid to maintain ownership.\n    - Steward maints control over ERC721.\n    */\n    using SafeMath for uint256;\n\n    uint8 constant numberOfTokens = 9;\n    \n    uint256[numberOfTokens] public price; //in wei\n    IERC721Full public assetToken; // ERC721 NFT.\n    string[numberOfTokens] public hashes; //Image hashes IPFS\n    \n    uint256[numberOfTokens] public totalCollected; // all patronage ever collected\n    uint256[numberOfTokens] public currentCollected; // amount currently collected for patron  \n    uint256[numberOfTokens] public timeLastCollected; // \n    uint256[numberOfTokens] public deposit;\n\n    address payable public organization; // non-profit organization\n    uint256 public organizationFund;\n    \n    mapping(uint8 => mapping (address => bool)) public patrons;\n    mapping(uint8 => mapping (address => uint256)) public timeHeld;\n\n    uint256[numberOfTokens] public timeAcquired;\n    \n    // 30% patronage\n    uint256 patronageNumerator =  12000000000000;\n    uint256 patronageDenominator = 1000000000000;\n\n    enum StewardState { Foreclosed, Owned }\n    StewardState[numberOfTokens] public state;\n\n    constructor(address payable _organization, address _assetToken) public {\n        assetToken = IERC721Full(_assetToken);\n        assetToken.setup(numberOfTokens, \"FIX-ME\");\n        organization = _organization;\n        for (uint8 i = 0; i < numberOfTokens; ++i){\n          state[i] = StewardState.Foreclosed;\n        }\n        for (uint8 i = 0; i < numberOfTokens; ++i){\n          hashes[i] = \"QmfCHzWyFrwmVwDaqj28VgUkHJ4aZA5DNBfcJRxU1GLGeq\";\n        }\n    }\n\n    event LogBuy(address indexed owner, uint256 indexed price);\n    event LogPriceChange(uint256 indexed newPrice);\n    event LogImageChange(string indexed newImage);\n    event LogForeclosure(address indexed prevOwner);\n    event LogCollection(uint256 indexed collected);\n    \n    modifier onlyPatron(uint8 tokenIndex) {\n        require(msg.sender == assetToken.ownerOf(tokenIndex), \"Not patron\");\n        _;\n    }\n\n    modifier onlyReceivingOrganization() {\n        require(msg.sender == organization, \"Not organization\");\n        _;\n    }\n\n    modifier collectPatronage(uint8 tokenIndex) {\n       _collectPatronage(tokenIndex);\n       _;\n    }\n\n    function changeReceivingOrganization(address payable _newReceivingOrganization) public onlyReceivingOrganization {\n        organization = _newReceivingOrganization;\n    }\n\n    /* public view functions */\n    function patronageOwed(uint8 tokenIndex) public view returns (uint256 patronageDue) {\n        return price[tokenIndex].mul(now.sub(timeLastCollected[tokenIndex])).mul(patronageNumerator)\n            .div(patronageDenominator).div(365 days);\n    }\n\n    function patronageOwedWithTimestamp(uint8 tokenIndex) public view returns (uint256 patronageDue, uint256 timestamp) {\n        return (patronageOwed(tokenIndex), now);\n    }\n\n    // TODO: currently patronage isn't shared. We need to think of best way to solve this.\n    function foreclosed(uint8 tokenIndex) public view returns (bool) {\n        // returns whether it is in foreclosed state or not\n        // depending on whether deposit covers patronage due\n        // useful helper function when price should be zero, but contract doesn't reflect it yet.\n        uint256 collection = patronageOwed(tokenIndex);\n        if(collection >= deposit[tokenIndex]) {\n            return true;\n        } else {\n            return false;\n        }\n    }\n\n    // same function as above, basically\n    function depositAbleToWithdraw(uint8 tokenIndex) public view returns (uint256) {\n        uint256 collection = patronageOwed(tokenIndex);\n        if(collection >= deposit[tokenIndex]) {\n            return 0;\n        } else {\n            return deposit[tokenIndex].sub(collection);\n        }\n    }\n\n    /*\n    now + deposit/patronage per second \n    now + depositAbleToWithdraw/(price*nume/denom/365).\n    */\n    function foreclosureTime(uint8 tokenIndex) public view returns (uint256) {\n        // patronage per second\n        uint256 pps = price[tokenIndex].mul(patronageNumerator).div(patronageDenominator).div(365 days);\n        return now + depositAbleToWithdraw(tokenIndex).div(pps); // zero division if price is zero.\n    }\n\n    /* actions */\n    function _collectPatronage(uint8 tokenIndex) public {\n        // determine patronage to pay\n        if (state[tokenIndex] == StewardState.Owned) {\n            uint256 collection = patronageOwed(tokenIndex);\n\n            // should foreclose and stake stewardship\n            if (collection >= deposit[tokenIndex]) {\n                // up to when was it actually paid for?\n                timeLastCollected[tokenIndex] = timeLastCollected[tokenIndex].add(((now.sub(timeLastCollected[tokenIndex])).mul(deposit[tokenIndex]).div(collection)));\n                collection = deposit[tokenIndex]; // take what's left.\n\n                _foreclose(tokenIndex);\n            } else  {\n                // just a normal collection\n                timeLastCollected[tokenIndex] = now;\n                currentCollected[tokenIndex] = currentCollected[tokenIndex].add(collection);\n            }\n\n            deposit[tokenIndex] = deposit[tokenIndex].sub(collection);\n            totalCollected[tokenIndex] = totalCollected[tokenIndex].add(collection);\n            organizationFund = organizationFund.add(collection);\n            emit LogCollection(collection);\n        }\n    }\n\n    // note: anyone can deposit\n    function depositWei(uint8 tokenIndex) public payable collectPatronage(tokenIndex) {\n        require(state[tokenIndex] != StewardState.Foreclosed, \"Foreclosed\");\n        deposit[tokenIndex] = deposit[tokenIndex].add(msg.value);\n    }\n\n    function buy(uint8 tokenIndex, uint256 _newPrice) public payable collectPatronage(tokenIndex) {\n        require(_newPrice > 0, \"Price is zero\");\n        require(msg.value > price[tokenIndex], \"Not enough\"); // >, coz need to have at least something for deposit\n        address currentOwner = assetToken.ownerOf(tokenIndex);\n\n        if (state[tokenIndex] == StewardState.Owned) {\n            uint256 totalToPayBack = price[tokenIndex];\n            if(deposit[tokenIndex] > 0) {\n                totalToPayBack = totalToPayBack.add(deposit[tokenIndex]);\n            }\n\n            // pay previous owner their price + deposit back.\n            address payable payableCurrentOwner = address(uint160(currentOwner));\n            payableCurrentOwner.transfer(totalToPayBack);\n        } else if(state[tokenIndex] == StewardState.Foreclosed) {\n            state[tokenIndex] = StewardState.Owned;\n            timeLastCollected[tokenIndex] = now;\n        }\n        \n        deposit[tokenIndex] = msg.value.sub(price[tokenIndex]);\n            transferAssetTokenTo(tokenIndex, currentOwner, msg.sender, _newPrice);\n        emit LogBuy(msg.sender, _newPrice);\n    }\n\n    function changePrice(uint8 tokenIndex, uint256 _newPrice) public onlyPatron(tokenIndex) collectPatronage(tokenIndex) {\n        require(state[tokenIndex] != StewardState.Foreclosed, \"Foreclosed\");\n        require(_newPrice != 0, \"Incorrect Price\");\n        \n        price[tokenIndex] = _newPrice;\n        emit LogPriceChange(price[tokenIndex]);\n    }\n\n    function changeImage(uint8 tokenIndex, string memory _newHash) public onlyPatron(tokenIndex) {\n        require(state[tokenIndex] != StewardState.Foreclosed, \"Foreclosed\");\n        require(bytes(_newHash).length == 46, \"Hash not valid \");\n        \n        hashes[tokenIndex] = _newHash;\n        emit LogImageChange(hashes[tokenIndex]);\n    }\n    \n    function withdrawDeposit(uint8 tokenIndex, uint256 _wei) public onlyPatron(tokenIndex) collectPatronage(tokenIndex) returns (uint256) {\n        _withdrawDeposit(tokenIndex, _wei);\n    }\n\n    function withdrawOrganizationFunds() public {\n        require(msg.sender == organization, \"Not organization\");\n        organization.transfer(organizationFund);\n        organizationFund = 0;\n    }\n\n    function exit(uint8 tokenIndex) public onlyPatron(tokenIndex) collectPatronage(tokenIndex) {\n        _withdrawDeposit(tokenIndex, deposit[tokenIndex]);\n    }\n\n    /* internal */\n\n    function _withdrawDeposit(uint8 tokenIndex, uint256 _wei) internal {\n        // note: can withdraw whole deposit, which puts it in immediate to be foreclosed state.\n        require(deposit[tokenIndex] >= _wei, 'Withdrawing too much');\n\n        deposit[tokenIndex] = deposit[tokenIndex].sub(_wei);\n        msg.sender.transfer(_wei); // msg.sender == patron\n\n        if(deposit[tokenIndex] == 0) {\n            _foreclose(tokenIndex);\n        }\n    }\n\n    function _foreclose(uint8 tokenIndex) internal {\n        // become steward of assetToken (aka foreclose)\n        address currentOwner = assetToken.ownerOf(tokenIndex);\n        transferAssetTokenTo(tokenIndex, currentOwner, address(this), 0);\n        state[tokenIndex] = StewardState.Foreclosed;\n        currentCollected[tokenIndex] = 0;\n\n        emit LogForeclosure(currentOwner);\n    }\n\n    function transferAssetTokenTo(uint8 tokenIndex, address _currentOwner, address _newOwner, uint256 _newPrice) internal {\n        // note: it would also tabulate time held in stewardship by smart contract\n        timeHeld[tokenIndex][_currentOwner] = timeHeld[tokenIndex][_currentOwner].add((timeLastCollected[tokenIndex].sub(timeAcquired[tokenIndex])));\n        \n        assetToken.transferFrom(_currentOwner, _newOwner, tokenIndex);\n\n        price[tokenIndex] = _newPrice;\n        timeAcquired[tokenIndex] = now;\n        patrons[tokenIndex][_newOwner] = true;\n    }\n}\n",
  "sourcePath": "/home/denham/Desktop/Blockchain/ETHIndia/contracts/VitalikSteward.sol",
  "compiler": {
    "name": "solc",
    "version": "0.5.0+commit.1d4f565a.Emscripten.clang"
  },
  "schemaVersion": "3.0.6",
  "updatedAt": "2019-08-03T18:33:00.669Z",
  "devdoc": {
    "methods": {}
  },
  "userdoc": {
    "methods": {}
  }
}